:020000040000FA
:100000000C9462000C948D030C9466030C948A008B
:100010000C948A000C948A000C948A000C948A0038
:100020000C948A000C948A000C948A000C948A0028
:100030000C948A000C948A000C948A000C948A0018
:100040000C941C030C948A000C94DA030C94B403F3
:100050000C948A000C948A000C948A000C948A00F8
:100060000C948A000C948A000000000024002700F1
:100070002A0000000000250028002B0000000000DE
:1000800023002600290004040404040404040202DA
:100090000202020203030303030301020408102007
:1000A0004080010204081020010204081020000012
:1000B0000008000201000003040700000000000027
:1000C0000000910511241FBECFEFD8E0DEBFCDBFE9
:1000D00011E0A0E0B1E0EEE0FCE002C005900D927E
:1000E000AA31B107D9F721E0AAE1B1E001C01D9220
:1000F000AA3CB207E1F710E0C2E6D0E004C02197C5
:10010000FE010E94FF05C136D107C9F70E940C0409
:100110000C9405060C940000833081F028F48130A3
:1001200099F08230A9F008958730A9F08830C9F09D
:100130008430B1F4809180008F7D03C08091800075
:100140008F7780938000089584B58F7784BD08955C
:1001500084B58F7DFBCF8091B0008F778093B00006
:1001600008958091B0008F7DF9CFCF93DF93282F32
:1001700030E0F901E255FF4F8491F901E656FF4F57
:10018000D491F901EA57FF4FC491CC23A1F081111A
:100190000E948C00EC2FF0E0EE0FFF1FE458FF4FA1
:1001A000A591B491EC91ED2381E090E009F480E019
:1001B000DF91CF91089580E090E0FACF1F93CF9325
:1001C000DF93282F30E0F901E255FF4F8491F901C8
:1001D000E656FF4FD491F901EA57FF4FC491CC2363
:1001E000A9F0162F81110E948C00EC2FF0E0EE0F89
:1001F000FF1FEE58FF4FA591B4918FB7F894EC9183
:10020000111108C0D095DE23DC938FBFDF91CF9111
:100210001F910895DE2BF8CFCF93DF9390E0FC0180
:10022000E656FF4F24918A579F4FFC018491882303
:10023000D1F090E0880F991FFC01E859FF4FA5917C
:10024000B491FC01EE58FF4FC591D49161110EC0DD
:100250009FB7F8948C91E22FE0958E238C932881A0
:10026000E223E8839FBFDF91CF9108958FB7F89481
:10027000EC91E22BEC938FBFF6CF3FB7F8948091CF
:10028000290190912A01A0912B01B0912C0126B552
:10029000A89B05C02F3F19F00196A11DB11D3FBFBE
:1002A000BA2FA92F982F8827BC01CD01620F711D8D
:1002B000811D911D42E0660F771F881F991F4A9587
:1002C000D1F70895CF93DF9382E00E94B500EC014F
:1002D00083E00E94B500CC0FDD1F8C2B9D2B20915D
:1002E0001A0130911B01220F331F220F331F282BBD
:1002F000392B2D30310549F02430310531F02230D1
:10030000310519F02B303105A1F4409120015091B5
:10031000210160912201709123014F5F5F4F6F4F68
:100320007F4F4093200150932101609322017093ED
:1003300023012E30310549F0A901475051094230BF
:10034000510518F021303105A1F440912001509160
:1003500021016091220170912301415051096109ED
:100360007109409320015093210160932201709301
:10037000230190931B0180931A01DF91CF9108957F
:100380000895AF92BF92CF92DF92EF92FF920F93B8
:100390001F93CF93DF936C017B018B01040F151F1B
:1003A000EB015E01AE18BF08C017D10759F0699183
:1003B000D601ED91FC910190F081E02DC6010995E7
:1003C000892B79F7C501DF91CF911F910F91FF9094
:1003D000EF90DF90CF90BF90AF900895FC01538DC8
:1003E000448D252F30E0842F90E0821B930B54170F
:1003F00010F0CF96089501970895FC01918D828D9C
:10040000981761F0A28DAE0FBF2FB11D5D968C9134
:10041000928D9F5F9F73928F90E008958FEF9FEF73
:100420000895FC01918D828D981731F0828DE80F2F
:10043000F11D858D90E008958FEF9FEF0895FC01E9
:10044000918D228D892F90E0805C9F4F821B9109B6
:100450008F73992708958DE291E00E941F0221E099
:10046000892B09F420E0822F089580E090E0892B09
:1004700029F00E942B0281110C9400000895FC01C8
:10048000A48DA80FB92FB11DA35ABF4F2C91848DF5
:1004900090E001968F739927848FA689B7892C9352
:1004A000A089B1898C91837080648C93938D848DA5
:1004B000981306C00288F389E02D80818F7D8083A8
:1004C0000895EF92FF920F931F93CF93DF93EC0168
:1004D00081E0888F9B8D8C8D98131AC0E889F989EB
:1004E000808185FF15C09FB7F894EE89FF896083EE
:1004F000E889F98980818370806480839FBF81E06F
:1005000090E0DF91CF911F910F91FF90EF900895B0
:10051000F62E0B8D10E00F5F1F4F0F731127E02E8B
:100520008C8D8E110CC00FB607FCFACFE889F989C3
:10053000808185FFF5CFCE010E943F02F1CFEB8D88
:10054000EC0FFD2FF11DE35AFF4FF0829FB7F89497
:100550000B8FEA89FB8980818062CFCFCF93DF93B5
:10056000EC01888D8823B9F0AA89BB89E889F989CB
:100570008C9185FD03C0808186FD0DC00FB607FC00
:10058000F7CF8C9185FFF2CF808185FFEDCFCE0133
:100590000E943F02E9CFDF91CF9108958F929F9201
:1005A000AF92BF920F931F93CF93DF93CDB7DEB778
:1005B000A1970FB6F894DEBF0FBECDBF19A242308F
:1005C00008F44AE08E010F5D1F4F842E912CB12C50
:1005D000A12CA50194010E94BE05E62FB901CA0114
:1005E000EA3044F5E05DD801EE938D01232B242BF6
:1005F000252B79F790E080E0109769F0FD010190DC
:100600000020E9F73197AF014A1B5B0BBD018DE27A
:1006100091E00E94C101A1960FB6F894DEBF0FBE13
:10062000CDBFDF91CF911F910F91BF90AF909F9061
:100630008F900895E95CD7CF1F920F920FB60F925B
:1006400011242F933F938F939F93AF93BF938091E8
:10065000250190912601A0912701B09128013091A8
:10066000240123E0230F2D3758F50196A11DB11D5C
:10067000209324018093250190932601A0932701C4
:10068000B09328018091290190912A01A0912B011A
:10069000B0912C010196A11DB11D80932901909369
:1006A0002A01A0932B01B0932C01BF91AF919F9190
:1006B0008F913F912F910F900FBE0F901F90189523
:1006C00026E8230F0296A11DB11DD2CF1F920F92D3
:1006D0000FB60F9211242F933F934F935F936F9315
:1006E0007F938F939F93AF93BF93EF93FF93E0918B
:1006F0000201F09103010995FF91EF91BF91AF9134
:100700009F918F917F916F915F914F913F912F9129
:100710000F900FBE0F901F9018951F920F920FB65B
:100720000F9211242F933F934F935F936F937F9377
:100730008F939F93AF93BF93EF93FF93E09100014B
:10074000F09101010995FF91EF91BF91AF919F91B8
:100750008F917F916F915F914F913F912F910F906A
:100760000FBE0F901F9018951F920F920FB60F9209
:1007700011242F933F934F935F936F937F938F93A6
:100780009F93AF93BF93EF93FF938DE291E00E940D
:100790003F02FF91EF91BF91AF919F918F917F9118
:1007A0006F915F914F913F912F910F900FBE0F90DE
:1007B0001F9018951F920F920FB60F9211242F932E
:1007C0008F939F93EF93FF93E0913D01F0913E0152
:1007D0008081E0914301F091440182FD1BC0908132
:1007E000809146018F5F8F7320914701821741F0FE
:1007F000E0914601F0E0E35DFE4F958F8093460166
:10080000FF91EF919F918F912F910F900FBE0F90BD
:100810001F9018958081F4CF789484B5826084BD50
:1008200084B5816084BD85B5826085BD85B58160F4
:1008300085BD80916E00816080936E001092810072
:10084000809181008260809381008091810081602D
:1008500080938100809180008160809380008091EE
:10086000B10084608093B1008091B000816080937A
:10087000B00080917A00846080937A0080917A0041
:10088000826080937A0080917A00816080937A0000
:1008900080917A00806880937A001092C100E09184
:1008A0003D01F0913E0182E08083E0913901F091B9
:1008B0003A011082E0913B01F0913C018FEC808382
:1008C00010924501E0914101F091420186E0808360
:1008D000E0913F01F0914001808180618083E0914F
:1008E0003F01F0914001808188608083E0913F0169
:1008F000F0914001808180688083E0913F01F09118
:10090000400180818F7D808360E082E00E940C0145
:1009100060E083E00E940C0161E082E00E94DE0062
:1009200061E083E00E94DE0022E631E030930101C5
:1009300020930001809169008C7F81608093690021
:10094000E89A309303012093020180916900837F2C
:10095000846080936900E99A61E085E00E940C015F
:1009600061E086E00E940C0194E0492E512C612C3C
:10097000712CCFE7D0E02FE7322E00E010E060913D
:100980002001709121018091220190912301A30106
:1009900092010E94E00520931C0130931D014093B9
:1009A0001E0150931F01C0901C01D0901D01E090CA
:1009B0001E01F0901F014AE0C701B601F7FE0DC00D
:1009C0006DE28DE291E00E94610266277727CB01FC
:1009D0006C197D098E099F094AE00E94CE0242E00F
:1009E00050E066E171E08DE291E00E94C1018091EA
:1009F0001C0190911D01A0911E01B0911F0161E0A9
:100A0000B7FD8BC080911C0190911D01A0911E012A
:100A1000B0911F01883B9B40A105B1050CF07DC042
:100A200085E00E940C01E3EBF0E08491833009F44F
:100A30005AC050F48130D1F0823009F44FC060E0E8
:100A400085E00E94DE0016C0873009F456C0883069
:100A500009F45BC0843099F78091800080628093B4
:100A60008000D0938B00C0938A0004C084B5806856
:100A700084BD37BC60E086E00E94DE000E943D013C
:100A80004B015C0184E6C82ED12CE12CF12C0E9494
:100A90003D01681979098A099B09683E73408105FF
:100AA0009105A8F3F1E0CF1AD108E108F10828EE8A
:100AB000820E23E0921EA11CB11CC114D104E104DA
:100AC000F10429F70115110509F459CF0E942B02F1
:100AD000882309F454CF0E94000051CF84B580626E
:100AE00084BD38BCC7CF809180008068809380002F
:100AF000D0938900C0938800BDCF8091B0008068FA
:100B00008093B0003092B300B5CF8091B000806286
:100B10008093B0003092B400ADCF85E00E940C010C
:100B20008ECFEDE2F1E01382128288EE93E0A0E036
:100B3000B0E084839583A683B78388E091E09183B6
:100B4000808385EC90E09587848784EC90E097879C
:100B5000868780EC90E0918B808B81EC90E0938B8A
:100B6000828B82EC90E0958B848B86EC90E0978B67
:100B7000868B118E128E138E148E0895A1E21A2E7A
:100B8000AA1BBB1BFD010DC0AA1FBB1FEE1FFF1F31
:100B9000A217B307E407F50720F0A21BB30BE40B81
:100BA000F50B661F771F881F991F1A9469F76095C8
:100BB0007095809590959B01AC01BD01CF01089582
:100BC000052E97FB1EF400940E94F70557FD07D0F1
:100BD0000E94BE0507FC03D04EF40C94F705509517
:100BE0004095309521953F4F4F4F5F4F0895909519
:100BF0008095709561957F4F8F4F9F4F0895EE0FB1
:100C0000FF1F0590F491E02D0994F894FFCFC001E7
:100C1000C001000000006102C101EE01AE021F022E
:080C2000FD0111020D0A0000A4
:107E0000112484B714BE81FFF0D085E080938100F7
:107E100082E08093C00088E18093C10086E0809377
:107E2000C20080E18093C4008EE0C9D0259A86E02C
:107E300020E33CEF91E0309385002093840096BBD3
:107E4000B09BFECF1D9AA8958150A9F7CC24DD24C4
:107E500088248394B5E0AB2EA1E19A2EF3E0BF2EE7
:107E6000A2D0813461F49FD0082FAFD0023811F036
:107E7000013811F484E001C083E08DD089C08234E0
:107E800011F484E103C0853419F485E0A6D080C0E4
:107E9000853579F488D0E82EFF2485D0082F10E0AE
:107EA000102F00270E291F29000F111F8ED06801E7
:107EB0006FC0863521F484E090D080E0DECF843638
:107EC00009F040C070D06FD0082F6DD080E0C81688
:107ED00080E7D80618F4F601B7BEE895C0E0D1E017
:107EE00062D089930C17E1F7F0E0CF16F0E7DF06D8
:107EF00018F0F601B7BEE89568D007B600FCFDCFD4
:107F0000A601A0E0B1E02C9130E011968C91119780
:107F100090E0982F8827822B932B1296FA010C0160
:107F200087BEE89511244E5F5F4FF1E0A038BF0790
:107F300051F7F601A7BEE89507B600FCFDCF97BE46
:107F4000E89526C08437B1F42ED02DD0F82E2BD052
:107F50003CD0F601EF2C8F010F5F1F4F84911BD097
:107F6000EA94F801C1F70894C11CD11CFA94CF0C13
:107F7000D11C0EC0853739F428D08EE10CD085E9AC
:107F80000AD08FE07ACF813511F488E018D01DD067
:107F900080E101D065CF982F8091C00085FFFCCF94
:107FA0009093C60008958091C00087FFFCCF809118
:107FB000C00084FD01C0A8958091C6000895E0E648
:107FC000F0E098E1908380830895EDDF803219F02E
:107FD00088E0F5DFFFCF84E1DECF1F93182FE3DFCA
:107FE0001150E9F7F2DF1F91089580E0E8DFEE27F6
:047FF000FF270994CA
:027FFE00040479
:00000001FF
