:100000000C9481000C9469040C9442040C94A90093
:100010000C94A9000C94A9000C94A9000C94A900BC
:100020000C94A9000C94A9000C94A9000C94A900AC
:100030000C94A9000C94A9000C94A9000C94A9009C
:100040000C94F8030C94A9000C94B6040C9490043E
:100050000C94A9000C94A9000C94A9000C94A9007C
:100060000C94A9000C94A9004E414E494E49545994
:10007000494E46CDCCCC3D0AD7233C17B7D1387773
:10008000CC2B329595E6241FB14F0A000020410089
:1000900000C84200401C4620BCBE4CCA1B0E5AAED3
:1000A000C59D7400000000240027002A0000000005
:1000B00000250028002B0000000000230026002956
:1000C0000004040404040404040202020202020301
:1000D000030303030301020408102040800102040B
:1000E000081020010204081020000000080002018E
:1000F0000000030407000000000000000000E80406
:10010000460711241FBECFEFD8E0DEBFCDBF22E0EF
:10011000A4E4B1E001C01D92AA30B207E1F711E0FA
:10012000A0E0B1E0E8ECF9E102C005900D92A43442
:10013000B107D9F710E0C0E8D0E004C02197FE0174
:100140000E94DF0ACF37D107C9F70E9423050C941C
:10015000D70C0C940000833081F028F4813099F0A2
:100160008230A9F008958730A9F08830C9F0843032
:10017000B1F4809180008F7D03C0809180008F77E3
:1001800080938000089584B58F7784BD089584B5E9
:100190008F7DFBCF8091B0008F778093B000089562
:1001A0008091B0008F7DF9CFCF93DF93282F30E07F
:1001B000F901E751FF4F8491F901EB52FF4FD491C0
:1001C000F901EF53FF4FC491CC23A1F081110E949C
:1001D000AB00EC2FF0E0EE0FFF1FE954FF4FA591AD
:1001E000B491EC91ED2381E090E009F480E0DF919F
:1001F000CF91089580E090E0FACF1F93CF93DF93E3
:10020000282F30E0F901E751FF4F8491F901EB52BB
:10021000FF4FD491F901EF53FF4FC491CC23A9F0C4
:10022000162F81110E94AB00EC2FF0E0EE0FFF1FA4
:10023000E355FF4FA591B4918FB7F894EC9111114C
:1002400008C0D095DE23DC938FBFDF91CF911F9143
:100250000895DE2BF8CFCF93DF9390E0FC01EB52B3
:10026000FF4F24918F539F4FFC0184918823C9F045
:1002700090E0880F991FFC01ED55FF4FA591B491B7
:10028000FC01E355FF4FC591D49161110DC09FB79B
:10029000F8948C91209582238C938881282328833D
:1002A0009FBFDF91CF910895623051F49FB7F894CA
:1002B0003C91822F809583238C93E8812E2BEFCF66
:1002C0008FB7F894EC912E2B2C938FBFEACF089523
:1002D0000895AF92BF92CF92DF92EF92FF920F9369
:1002E0001F93CF93DF936C017B018B01040F151FCC
:1002F000EB015E01AE18BF08C017D10759F0699134
:10030000D601ED91FC910190F081E02DC601099597
:10031000892B79F7C501DF91CF911F910F91FF9044
:10032000EF90DF90CF90BF90AF900895FC01538D78
:10033000448D252F30E0842F90E0821B930B5417BF
:1003400010F0CF96089501970895FC01918D828D4C
:10035000981761F0A28DAE0FBF2FB11D5D968C91E5
:10036000928D9F5F9F73928F90E008958FEF9FEF24
:1003700008952FB7F89480915D0190915E01A0914E
:100380005F01B09160012FBF8093690190936A0172
:10039000A0936B01B0936C0181E691E00E94A501EE
:1003A00097FF26C02FB7F89480915D0190915E0170
:1003B000A0915F01B09160012FBF40916901509100
:1003C0006A0160916B0170916C01841B950BA60B07
:1003D000B70B409165015091660160916701709182
:1003E000680184179507A607B707B0F28FEF9FEF54
:1003F0000895FC01918D828D981731F0828DE80F60
:10040000F11D858D90E008958FEF9FEF0895FC0119
:10041000918D228D892F90E0805C9F4F821B9109E6
:100420008F739927089581E691E00E94070221E0E9
:10043000892B09F420E0822F0895FC01A48DA80FD8
:10044000B92FB11DA35ABF4F2C91848D90E0019616
:100450008F739927848FA689B7892C93A089B18936
:100460008C91837080648C93938D848D981306C0D7
:100470000288F389E02D80818F7D80830895EF923B
:10048000FF920F931F93CF93DF93EC0181E0888F4E
:100490009B8D8C8D98131AC0E889F989808185FF1E
:1004A00015C09FB7F894EE89FF896083E889F989C0
:1004B00080818370806480839FBF81E090E0DF91C2
:1004C000CF911F910F91FF90EF900895F62E0B8D15
:1004D00010E00F5F1F4F0F731127E02E8C8D8E11D0
:1004E0000CC00FB607FCFACFE889F989808185FF37
:1004F000F5CFCE010E941D02F1CFEB8DEC0FFD2F49
:10050000F11DE35AFF4FF0829FB7F8940B8FEA89F1
:10051000FB8980818062CFCFCF93DF93EC01888D00
:100520008823B9F0AA89BB89E889F9898C9185FD6E
:1005300003C0808186FD0DC00FB607FCF7CF8C91FC
:1005400085FFF2CF808185FFEDCFCE010E941D0295
:10055000E9CFDF91CF910895CF93DF9382E00E949E
:10056000D400EC0183E00E94D400C817D90761F4DD
:1005700080914601909147010196909347018093A5
:100580004601DF91CF9108958091460190914701F6
:100590000197F3CFFC0180819181009711F00C94B9
:1005A000810B08950F931F93CF93DF93EC01888104
:1005B0009981009759F02A813B812617370730F03F
:1005C00081E0DF91CF911F910F9108958B016F5FB3
:1005D0007F4F0E940A0C009759F0998388831B83F0
:1005E0000A832C813D81232B59F7FC011082E8CF2F
:1005F00080E0E7CFEF92FF920F931F93CF93DF93AB
:10060000EC017B018A01BA010E94D2022881398162
:10061000811114C02115310519F0C9010E94810B07
:10062000198218821D821C821B821A82CE01DF91E0
:10063000CF911F910F91FF90EF9008951D830C8330
:10064000B701C9010E94D00CF1CFCF92DF92EF9297
:10065000FF920F931F93CF93DF93CDB7DEB7289709
:100660000FB6F894DEBF0FBECDBF81E691E00E94C9
:100670000702892BD1F31A8219821C821B821E82E7
:100680001D8250E040E063E471E0CE0101960E94DB
:10069000FA020E94B90197FD1EC08A309105D9F077
:1006A0008F8318860D811E810F5F1F4FB801CE0109
:1006B00001960E94D202882361F329813A818D81BB
:1006C0009E81BE01695F7F4F820F931F0E94D00CF5
:1006D0001E830D83DECF8091FE019091FF01009774
:1006E00009F469C069817A816115710509F461C0F5
:1006F00040910002509101022D813E814217530723
:1007000008F457C00E94D00C8D819E819093030203
:10071000809302021E821D82CE0101960E94CA02AF
:100720001A8219821C821B821E821D826091FE0128
:100730007091FF016115710541F0409102025091E5
:100740000302CE0101960E94FA0289819A81C12C8E
:10075000D12C7601009721F00E944A076B017C01A1
:10076000CE0101960E94CA022AE939E94AEA53E415
:10077000C701B6010E94250920E030E040E05EE3B9
:100780000E942509609348017093490180934A01B2
:1007900090934B0128960FB6F894DEBF0FBECDBFE5
:1007A000DF91CF911F910F91FF90EF90DF90CF904D
:1007B00008950E94810B89819A819093FF01809313
:1007C000FE018B819C8190930102809300028D81B8
:1007D0009E8190930302809302021A8219821C82E6
:1007E0001B8298CF0E94130281110C942503089557
:1007F0001F920F920FB60F9211242F933F938F9356
:100800009F93AF93BF9380915D0190915E01A09102
:100810005F01B091600130915C0123E0230F2D371F
:1008200058F50196A11DB11D20935C0180935D01D7
:1008300090935E01A0935F01B09360018091580195
:1008400090915901A0915A01B0915B010196A11DAF
:10085000B11D8093580190935901A0935A01B09310
:100860005B01BF91AF919F918F913F912F910F901D
:100870000FBE0F901F90189526E8230F0296A11D1A
:10088000B11DD2CF1F920F920FB60F9211242F934A
:100890003F934F935F936F937F938F939F93AF9308
:1008A000BF93EF93FF93E0910201F091030109954B
:1008B000FF91EF91BF91AF919F918F917F916F9138
:1008C0005F914F913F912F910F900FBE0F901F900E
:1008D00018951F920F920FB60F9211242F933F93EA
:1008E0004F935F936F937F938F939F93AF93BF9338
:1008F000EF93FF93E0910001F09101010995FF91C1
:10090000EF91BF91AF919F918F917F916F915F9187
:100910004F913F912F910F900FBE0F901F90189500
:100920001F920F920FB60F9211242F933F934F9364
:100930005F936F937F938F939F93AF93BF93EF9347
:10094000FF9381E691E00E941D02FF91EF91BF911C
:10095000AF919F918F917F916F915F914F913F9157
:100960002F910F900FBE0F901F9018951F920F920E
:100970000FB60F9211242F938F939F93EF93FF93B2
:10098000E0917101F09172018081E0917701F09125
:10099000780182FD1BC0908180917A018F5F8F73F7
:1009A00020917B01821741F0E0917A01F0E0EF594C
:1009B000FE4F958F80937A01FF91EF919F918F91D8
:1009C0002F910F900FBE0F901F9018958081F4CF3C
:1009D000E1E6F1E01382128288EE93E0A0E0B0E05D
:1009E00084839583A683B7838EE091E0918380838F
:1009F00085EC90E09587848784EC90E097878687E4
:100A000080EC90E0918B808B81EC90E0938B828BDB
:100A100082EC90E0958B848B86EC90E0978B868BB4
:100A2000118E128E138E148EEEEFF1E01182108271
:100A3000138212821582148250E040E063E471E078
:100A4000CF010C94FA02CF93DF9300D000D0CDB742
:100A5000DEB7789484B5826084BD84B5816084BD3E
:100A600085B5826085BD85B5816085BD80916E004C
:100A7000816080936E00109281008091810082607D
:100A800080938100809181008160809381008091BA
:100A900080008160809380008091B10084608093A9
:100AA000B1008091B00081608093B00080917A00A5
:100AB000846080937A0080917A00826080937A00CB
:100AC00080917A00816080937A0080917A008068BA
:100AD00080937A001092C100E0917101F09172014F
:100AE00082E08083E0916D01F0916E011082E091CF
:100AF0006F01F09170018FEC808310927901E09189
:100B00007501F091760186E08083E0917301F091A8
:100B10007401808180618083E0917301F0917401A0
:100B2000808188608083E0917301F09174018081FD
:100B300080688083E0917301F091740180818F7DE2
:100B4000808362E082E00E942B0160E083E00E94EB
:100B50002B018CEA92E09093010180930001809137
:100B600069008C7F816080936900E89A61E084E08D
:100B70000E942B0161E085E00E942B0161E086E08C
:100B80000E942B0144E250E06CE171E081E691E0CB
:100B90000E94690142E050E061E471E081E691E089
:100BA0000E9469010FEE10E02FB7F89460915D018B
:100BB00070915E0180915F01909160012FBF0E9452
:100BC000C4086B017C0160915401709155018091C2
:100BD0005601909157010E94C40820E030E040EA9D
:100BE00051E40E94380A9B01AC01C701B6010E9482
:100BF000DA0A18160CF0ABC02FB7F89480915D019B
:100C000090915E01A0915F01B09160012FBF809330
:100C1000540190935501A0935601B09357018091D0
:100C20004C0190914D01A0914E01B0914F018983EB
:100C30009A83AB83BC83C0905001D0905101E09067
:100C40005201F0905301C0924C01D0924D01E092BC
:100C50004E01F0924F016091460170914701072EBD
:100C6000000C880B990B0E94C6089B01AC01609197
:100C700048017091490180914A0190914B010E9475
:100C8000370A4B015C018092500190925101A09271
:100C90005201B09253016091440170914501072EB9
:100CA000000C880B990B0E94C6082B013C0121E027
:100CB00030E040EA50E4C501B4010E9425099B01DF
:100CC000AC01C301B2010E94380A4B015C0125E36B
:100CD00033E343E950ECC701B6010E9425099B01AB
:100CE000AC01C501B4010E94380A6B017C012DEBF7
:100CF00037E346E055E369817A818B819C810E94CC
:100D000025099B01AC01C701B6010E94380A0E9467
:100D1000A40A9B0177FF04C022273327261B370B29
:100D20002F3F31050CF040C0309345012093440122
:100D3000E0904401F090450161E086E00E942B01C3
:100D4000E114F104C1F560E086E00E94FD00C0906E
:100D50005001D0905101E0905201F090530120E0F9
:100D600030E040EA50E4C701B6010E94BF081816FF
:100D70000CF469C020E030E040EA50ECC701B60155
:100D80000E94DA0A87FD5FC060E084E00E94FD00F7
:100D900060E085E00E94FD000E941302882309F4B0
:100DA00003CF0E94250300CFAFEFB0E0B093450121
:100DB000A0934401BDCFBFEFEB16F10411F461E045
:100DC000C3CFF8018491833021F148F48130B9F028
:100DD0008230D1F0F0E8EF16F1048CF7B4CF873011
:100DE00011F1883041F18430A9F780918000806250
:100DF00080938000F0928B00E0928A00A8CF84B5A7
:100E0000806884BDE7BCA3CF84B5806284BDE8BCA4
:100E10009ECF80918000806880938000F09289004E
:100E2000E092880094CF8091B00080688093B000F9
:100E3000E092B3008CCF8091B00080628093B000CC
:100E4000E092B40084CF20E030E040E050ECC701F5
:100E5000B6010E94BF0887FF08C061E084E00E94DD
:100E6000FD0060E085E00E94FD0020E030E040E011
:100E700050E4C701B6010E94DA0A18160CF08CCFB4
:100E800060E084E00E94FD0061E083CF8EEF91E09E
:100E90000C94CA02662777270C944E07B0E0A0E0B6
:100EA000E4E5F7E00C94F7095C017B01611571053D
:100EB00019F0DB018D939C9385010F5F1F4FF501A6
:100EC000D0818D2F90E00E949E086C01892BB9F58E
:100ED000DD32B9F50F5F1F4FD5011196DC91C1E0EE
:100EE0005801F1E0AF1AB10843E050E060E770E06C
:100EF000C5010E94A708892B69F5680182E0C80E28
:100F0000D11C45E050E06BE670E0C6010E94A708E6
:100F1000892B21F4680197E0C90ED11CE114F1047A
:100F200019F0D701CD92DC9260E070E080E89FEF8D
:100F3000C111FFC060E070E080E89FE7FAC058018F
:100F4000BBCFDB3229F485010E5F1F4FF501D18144
:100F5000C0E0C6CF43E050E068E670E0C5010E9403
:100F6000A708892BE9F0F80110E000E020E030E06C
:100F7000A9015F01B0ED8B2E8D0E89E08815C8F1B7
:100F80009C2E689491F88C2F8870C2FF16C0811136
:100F900002C00F5F1F4F3196D501DC91C92DE9CFFB
:100FA000E114F10429F00E5F1F4FF7011183008354
:100FB00060E070E080EC9FE7BCC0882311F0015036
:100FC0001109A5E0B0E00E94E6099B01AC01220FE7
:100FD000331F441F551F280D311D411D511D283938
:100FE00099E93907490799E15907A8F2C6609C2E8B
:100FF000D2CFAEEF8A1206C0C3FD3CC09C2E6894CF
:1010000093F8C9CFDF7DD534A9F580818D3239F4CD
:10101000C061DF011296818162E070E006C0DF01ED
:101020008B32C1F3119661E070E080535D01A61A26
:10103000B70A8A30F8F4E0E8CE16ECE0DE065CF49D
:10104000B601660F771F660F771FC60ED71ECC0C32
:10105000DD1CC80ED11C5D01FFEFAF1ABF0A8C91D9
:1010600080538A30A8F1C4FF03C0D194C194D10841
:101070000C0D1D1DC1FF09C0E114F10431F081E028
:10108000A81AB108D701AD92BC92CA01B9010E9459
:10109000C408C370C33009F490584B015C0120E0D0
:1010A00030E0A9010E94BF08882309F440C0CFE9BD
:1010B000D0E017FF05C0119501951109C7E8D0E0F0
:1010C0006E01B8E1CB1AD10880E2E82EF12C0FC0F6
:1010D000D501B1CFFE0125913591459154910E195D
:1010E0001F09C501B4010E9425094B015C01D5010E
:1010F000C4010E151F0574F72497F594E794CC16D8
:10110000DD06A9F78A2F880F8B2F881F8F3F49F0A4
:1011100020E030E0A901C501B4010E94BF0881119F
:1011200006C082E290E09093050280930402C5011C
:10113000B401CDB7DEB7ECE00C94130A91110C9416
:101140009209803219F089508550C8F70895FB0143
:10115000DC014150504088F08D9181341CF08B357A
:101160000CF4805E659161341CF06B350CF4605EAC
:10117000861B611171F3990B0895881BFCCF0E94A7
:10118000010908F481E00895E89409C097FB3EF452
:1011900090958095709561957F4F8F4F9F4F9923C4
:1011A000A9F0F92F96E9BB279395F6958795779542
:1011B0006795B795F111F8CFFAF4BB0F11F460FF02
:1011C0001BC06F5F7F4F8F4F9F4F16C0882311F05A
:1011D00096E911C0772321F09EE8872F762F05C06E
:1011E000662371F096E8862F70E060E02AF09A9509
:1011F000660F771F881FDAF7880F9695879597F9FE
:101200000895990F0008550FAA0BE0E8FEEF161697
:101210001706E807F907C0F012161306E407F507EA
:1012200098F0621B730B840B950B39F40A2661F05E
:10123000232B242B252B21F408950A2609F4A14001
:10124000A6958FEF811D811D08950E9438090C9489
:10125000AC090E949E0938F00E94A50920F0952350
:1012600011F00C9495090C949B0911240C94E0093D
:101270000E94BD0970F3959FC1F3950F50E0551F73
:10128000629FF001729FBB27F00DB11D639FAA27DB
:10129000F00DB11DAA1F649F6627B00DA11D661F2A
:1012A000829F2227B00DA11D621F739FB00DA11D4B
:1012B000621F839FA00D611D221F749F3327A00D05
:1012C000611D231F849F600D211D822F762F6A2FA1
:1012D00011249F5750409AF0F1F088234AF0EE0F06
:1012E000FF1FBB1F661F771F881F91505040A9F733
:1012F0009E3F510580F00C9495090C94E0095F3FE6
:10130000E4F3983ED4F3869577956795B795F7956E
:10131000E7959F5FC1F7FE2B880F911D96958795E6
:1013200097F9089599278827089597F99F6780E886
:1013300070E060E008959FEF80EC089500240A9427
:101340001616170618060906089500240A941216A0
:101350001306140605060895092E0394000C11F4D3
:10136000882352F0BB0F40F4BF2B11F460FF04C080
:101370006F5F7F4F8F4F9F4F089557FD9058440FD9
:10138000551F59F05F3F71F04795880F97FB991FE4
:1013900061F09F3F79F087950895121613061406A1
:1013A000551FF2CF4695F1DF08C01616170618062E
:1013B000991FF1CF86957105610508940895E89409
:1013C000BB2766277727CB0197F908950E94280A43
:1013D000A59F900DB49F900DA49F800D911D112489
:1013E00008952F923F924F925F926F927F928F92C9
:1013F0009F92AF92BF92CF92DF92EF92FF920F93A4
:101400001F93CF93DF93CDB7DEB7CA1BDB0B0FB6AD
:10141000F894DEBF0FBECDBF09942A88398848886A
:101420005F846E847D848C849B84AA84B984C88400
:10143000DF80EE80FD800C811B81AA81B981CE0FF7
:10144000D11D0FB6F894DEBF0FBECDBFED010895DC
:10145000A29FB001B39FC001A39F700D811D1124F5
:10146000911DB29F700D811D1124911D089550583A
:10147000BB27AA270E944F0A0C94AC090E949E0920
:1014800038F00E94A50920F039F49F3F19F426F4A2
:101490000C949B090EF4E095E7FB0C949509E92F59
:1014A0000E94BD0958F3BA176207730784079507AE
:1014B00020F079F4A6F50C94DF090EF4E0950B2EDC
:1014C000BA2FA02D0B01B90190010C01CA01A00196
:1014D0001124FF27591B99F0593F50F4503E68F1F1
:1014E0001A16F040A22F232F342F4427585FF3CF32
:1014F000469537952795A795F0405395C9F77EF403
:101500001F16BA0B620B730B840BBAF09150A1F04B
:10151000FF0FBB1F661F771F881FC2F70EC0BA0FD1
:10152000621F731F841F48F4879577956795B79559
:10153000F7959E3F08F0B0CF9395880F08F0992754
:10154000EE0F9795879508950E94AB0A6894B111A4
:101550000C94E00908950E94C50988F09F5798F0FF
:10156000B92F9927B751B0F0E1F0660F771F881FA8
:10157000991F1AF0BA95C9F714C0B13091F00E94C2
:10158000DF09B1E008950C94DF09672F782F8827D1
:10159000B85F39F0B93FCCF3869577956795B395E9
:1015A000D9F73EF490958095709561957F4F8F4F58
:1015B0009F4F08950E94010908F48FEF0895EE0FE0
:1015C000FF1F0590F491E02D09940F931F93CF9383
:1015D000DF938230910510F482E090E0E091080200
:1015E000F091090230E020E0B0E0A0E0309799F4FB
:1015F0002115310509F44AC0281B390B2430310567
:10160000D8F58A819B816115710589F1FB0193836E
:101610008283FE0111C040815181028113814817EC
:101620005907E0F04817590799F4109761F012969E
:101630000C93129713961C933296CF01DF91CF91A2
:101640001F910F9108950093080210930902F4CF9F
:101650002115310551F04217530738F0A901DB017C
:101660009A01BD01DF01F801C1CFEF01F9CF9093DD
:10167000090280930802CDCFFE01E20FF31F819390
:1016800091932250310939832883D7CF20910602C4
:1016900030910702232B41F420910601309107017C
:1016A0003093070220930602209104013091050136
:1016B0002115310541F42DB73EB7409108015091F5
:1016C0000901241B350BE0910602F0910702E21795
:1016D000F307A0F42E1B3F0B2817390778F0AC0155
:1016E0004E5F5F4F2417350748F04E0F5F1F509332
:1016F000070240930602819391939FCFF0E0E0E0D0
:101700009CCFCF93DF930097E9F0FC0132971382CF
:101710001282A0910802B0910902ED0130E020E0B0
:101720001097A1F420813181820F931F209106022E
:10173000309107022817390709F061C0F0930702BA
:10174000E0930602DF91CF910895EA01CE17DF07FB
:10175000E8F54A815B819E0141155105B1F7E90128
:10176000FB83EA8349915991C40FD51FEC17FD07FC
:1017700061F4808191810296840F951FE90199831C
:101780008883828193819B838A83F0E0E0E01296D4
:101790008D919C9113970097B9F52D913C911197DC
:1017A000CD010296820F931F20910602309107020D
:1017B0002817390739F6309751F51092090210921F
:1017C0000802B0930702A0930602BCCFD383C28362
:1017D00040815181840F951FC817D90761F44E5F6E
:1017E0005F4F88819981480F591F518340838A81B7
:1017F0009B81938382832115310509F0B0CFF0934B
:101800000902E09308029ECFFD01DC01C0CF1382E4
:101810001282D7CFB0E0A0E0E0E1FCE00C94F30945
:101820008C01009751F4CB010E94E50A8C01C8019C
:10183000CDB7DEB7E0E10C940F0AFC01E60FF71F0D
:101840009C0122503109E217F30708F49DC0D90129
:10185000CD91DC911197C617D70798F0C530D10507
:1018600030F3CE0104978617970708F3C61BD70BF2
:101870002297C193D1936D937C93CF010E94810BEA
:10188000D6CF5B01AC1ABD0A4C018C0E9D1EA091F7
:101890000802B0910902512C412CF12CE12C109737
:1018A00031F580910602909107028815990509F09B
:1018B0005CC04616570608F058C08091040190910C
:1018C0000501009741F48DB79EB7409108015091F2
:1018D0000901841B950BE817F90708F055C0F09330
:1018E0000702E0930602F90171836083A0CF8D9116
:1018F0009C91119712966C90129713967C90139767
:10190000A815B90559F56C0142E0C40ED11CCA14E2
:10191000DB0420F1AC014A195B09DA011296159734
:1019200080F06282738251834083D9016D937C93EE
:10193000E114F10471F0D7011396FC93EE93129722
:1019400076CF22968C0F9D1FF90191838083F3013E
:10195000EFCFF0930902E093080269CF48165906C9
:1019600008F42C017D01D3019ACFCB010E94E50A36
:101970007C01009749F0AE01B8010E94C70CC80174
:101980000E94810B870153CF10E000E050CFFB0194
:10199000DC0102C001900D9241505040D8F70895EB
:1019A000FB01DC0101900D920020E1F7089510E0A9
:1019B000C0E8D0E004C0FE010E94DF0A2196C138D1
:0819C000D107C9F7F894FFCF2D
:1019C8006801680100000A028000000000003F0270
:1019D800690196018C020702A501F901496E677237
:1019E800657365206C612064697374616E636961F5
:1019F80020656E206D696C696D6574726F73203A2D
:041A0800000D0A00C3
:00000001FF
