:020000040000FA
:100000000C9463000C94B5040C948E040C948B0037
:100010000C948B000C948B000C948B000C948B0034
:100020000C948B000C948B000C948B000C948B0024
:100030000C948B000C948B000C948B000C948B0014
:100040000C9444040C948B000C9402050C94DC0476
:100050000C948B000C948B000C948B000C948B00F4
:100060000C948B000C948B000000000024002700EF
:100070002A0000000000250028002B0000000000DE
:1000800023002600290004040404040404040202DA
:100090000202020203030303030301020408102007
:1000A0004080010204081020010204081020000012
:1000B0000008000201000003040700000000000027
:1000C00000003405E30611241FBECFEFD8E0DEBFE9
:1000D000CDBF22E0AAE4B1E001C01D92A630B20774
:1000E000E1F711E0A0E0B1E0ECE6F5E102C0059037
:1000F0000D92AA34B107D9F710E0C2E6D0E004C0EF
:100100002197FE010E94B108C136D107C9F70E94AC
:100110007E050C94A90A0C940000833081F028F429
:10012000813099F08230A9F008958730A9F08830A5
:10013000C9F08430B1F4809180008F7D03C080913C
:1001400080008F7780938000089584B58F7784BD79
:10015000089584B58F7DFBCF8091B0008F77809319
:10016000B00008958091B0008F7DF9CFCF93DF93D9
:10017000282F30E0F901E255FF4F8491F901E6564E
:10018000FF4FD491F901EA57FF4FC491CC23A1F05E
:1001900081110E948D00EC2FF0E0EE0FFF1FE4585C
:1001A000FF4FA591B491EC91ED2381E090E009F42B
:1001B00080E0DF91CF91089580E090E0FACF1F9327
:1001C000CF93DF93282F30E0F901E255FF4F849160
:1001D000F901E656FF4FD491F901EA57FF4FC49158
:1001E000CC23A9F0162F81110E948D00EC2FF0E096
:1001F000EE0FFF1FEE58FF4FA591B4918FB7F89403
:10020000EC91111108C0D095DE23DC938FBFDF91F4
:10021000CF911F910895DE2BF8CFCF93DF9390E01D
:10022000FC01E656FF4F24918A579F4FFC018491B1
:100230008823C9F090E0880F991FFC01E859FF4F0F
:10024000A591B491FC01EE58FF4FC591D491611175
:100250000DC09FB7F8948C91209582238C93888150
:10026000282328839FBFDF91CF910895623051F4F6
:100270009FB7F8943C91822F809583238C93E881DB
:100280002E2BEFCF8FB7F894EC912E2B2C938FBFA2
:10029000EACF08950895AF92BF92CF92DF92EF9286
:1002A000FF920F931F93CF93DF936C017B018B0120
:1002B000040F151FEB015E01AE18BF08C017D10770
:1002C00059F06991D601ED91FC910190F081E02DFA
:1002D000C6010995892B79F7C501DF91CF911F914F
:1002E0000F91FF90EF90DF90CF90BF90AF90089567
:1002F000FC01538D448D252F30E0842F90E0821B2C
:10030000930B541710F0CF96089501970895FC01B0
:10031000918D828D981761F0A28DAE0FBF2FB11D08
:100320005D968C91928D9F5F9F73928F90E0089560
:100330008FEF9FEF08952FB7F8948091550190911A
:100340005601A0915701B09158012FBF80936101D0
:1003500090936201A0936301B093640189E591E0F9
:100360000E94870197FF26C02FB7F894809155010E
:1003700090915601A0915701B09158012FBF409123
:100380006101509162016091630170916401841B6D
:10039000950BA60BB70B40915D0150915E016091EA
:1003A0005F017091600184179507A607B707B0F247
:1003B0008FEF9FEF0895FC01918D828D981731F09A
:1003C000828DE80FF11D858D90E008958FEF9FEFEE
:1003D0000895FC01918D228D892F90E0805C9F4FC4
:1003E000821B91098F739927089589E591E00E94F6
:1003F000E90121E0892B09F420E0822F0895FC0116
:10040000A48DA80FB92FB11DA35ABF4F2C91848D75
:1004100090E001968F739927848FA689B7892C93D2
:10042000A089B1898C91837080648C93938D848D25
:10043000981306C00288F389E02D80818F7D808328
:100440000895EF92FF920F931F93CF93DF93EC01E8
:1004500081E0888F9B8D8C8D98131AC0E889F9896B
:10046000808185FF15C09FB7F894EE89FF8960836E
:10047000E889F98980818370806480839FBF81E0EF
:1004800090E0DF91CF911F910F91FF90EF90089531
:10049000F62E0B8D10E00F5F1F4F0F731127E02E0C
:1004A0008C8D8E110CC00FB607FCFACFE889F98944
:1004B000808185FFF5CFCE010E94FF01F1CFEB8D4A
:1004C000EC0FFD2FF11DE35AFF4FF0829FB7F89418
:1004D0000B8FEA89FB8980818062CFCFCF93DF9336
:1004E000EC01888D8823B9F0AA89BB89E889F9894C
:1004F0008C9185FD03C0808186FD0DC00FB607FC81
:10050000F7CF8C9185FFF2CF808185FFEDCFCE01B3
:100510000E94FF01E9CFDF91CF910895CF93DF9340
:1005200082E00E94B600EC0183E00E94B600C8178A
:10053000D90761F480914C0190914D0101969093FF
:100540004D0180934C01DF91CF91089580914C0132
:1005500090914D010197F3CFFC0101900020E9F744
:100560003197AF01481B590BBC0189E591E00C9410
:100570004B018F929F92AF92BF920F931F93CF9395
:10058000DF93CDB7DEB7A1970FB6F894DEBF0FBEED
:10059000CDBF19A2423008F44AE08E010F5D1F4F13
:1005A000842E912CB12CA12CA50194010E948F08BE
:1005B000E62FB901CA01EA30F4F4E05DD801EE9308
:1005C0008D01232B242B252B79F790E080E01097C9
:1005D00019F0CD010E94AC02A1960FB6F894DEBFCF
:1005E0000FBECDBFDF91CF911F910F91BF90AF9004
:1005F0009F908F900895E95CE1CFCF92DF92EF92C8
:10060000FF92CF93DF936B017C016DE289E591E06E
:100610000E942102EC0166277727CB016C197D0926
:100620008E099F094AE00E94B9028C0F9D1FDF913D
:10063000CF91FF90EF90DF90CF900895FC018081E3
:100640009181009711F00C94530908950F931F9313
:10065000CF93DF93EC0188819981009759F02A812B
:100660003B812617370730F081E0DF91CF911F9152
:100670000F9108958B016F5F7F4F0E94DC090097F7
:1006800059F0998388831B830A832C813D81232B16
:1006900059F7FC011082E8CF80E0E7CFEF92FF929C
:1006A0000F931F93CF93DF93EC017B018A01BA0173
:1006B0000E94260328813981811114C0211531053A
:1006C00019F0C9010E945309198218821D821C82E7
:1006D0001B821A82CE01DF91CF911F910F91FF9063
:1006E000EF9008951D830C83B701C9010E94A20AEF
:1006F000F1CFCF92DF92EF92FF92CF93DF93CDB7FE
:10070000DEB728970FB6F894DEBF0FBECDBF89E5E0
:1007100091E00E94E901892BD1F31A8219821C828F
:100720001B821E821D8250E040E06DE371E0CE012D
:1007300001960E944E030E949B0197FD1FC08A30C4
:100740009105E1F08F831886ED80FE808FEFE81A27
:10075000F80AB701CE0101960E942603882359F3B7
:1007600029813A818D819E81BE01695F7F4F820F11
:10077000931F0E94A20AFE82ED82DDCF8091F601D6
:100780009091F701009709F462C069817A8161153F
:10079000710509F45AC04091F8015091F9012D8179
:1007A0003E814217530708F450C00E94A20A8D816F
:1007B0009E819093FB018093FA011E821D82CE01DF
:1007C00001960E941E031A8219821C821B821E82BD
:1007D0001D826091F6017091F7016115710541F07C
:1007E0004091FA015091FB01CE0101960E944E0307
:1007F00089819A81C12CD12C7601009719F00E9431
:10080000EB066B01CE0101960E941E03B601DD0CC2
:10081000880B990B0E9429072AE939E94AEA53E42F
:100820000E9464070E94590870934F0160934E0123
:1008300028960FB6F894DEBF0FBECDBFDF91CF91E3
:10084000FF90EF90DF90CF9008950E945309898127
:100850009A819093F7018093F6018B819C8190930C
:10086000F9018093F8018D819E819093FB01809323
:10087000FA011A8219821C821B829FCF0E94F50105
:1008800081110C94790308951F920F920FB60F9265
:1008900011242F933F938F939F93AF93BF93809196
:1008A000550190915601A0915701B0915801309196
:1008B000540123E0230F2D3758F50196A11DB11DDA
:1008C000209354018093550190935601A0935701B2
:1008D000B09358018091500190915101A091520123
:1008E000B09153010196A11DB11D809350019093C9
:1008F0005101A0935201B0935301BF91AF919F91C9
:100900008F913F912F910F900FBE0F901F901895D0
:1009100026E8230F0296A11DB11DD2CF1F920F9280
:100920000FB60F9211242F933F934F935F936F93C2
:100930007F938F939F93AF93BF93EF93FF93E09138
:100940000201F09103010995FF91EF91BF91AF91E1
:100950009F918F917F916F915F914F913F912F91D7
:100960000F900FBE0F901F9018951F920F920FB609
:100970000F9211242F933F934F935F936F937F9325
:100980008F939F93AF93BF93EF93FF93E0910001F9
:10099000F09101010995FF91EF91BF91AF919F9166
:1009A0008F917F916F915F914F913F912F910F9018
:1009B0000FBE0F901F9018951F920F920FB60F92B7
:1009C00011242F933F934F935F936F937F938F9354
:1009D0009F93AF93BF93EF93FF9389E591E00E94BC
:1009E000FF01FF91EF91BF91AF919F918F917F9107
:1009F0006F915F914F913F912F910F900FBE0F908C
:100A00001F9018951F920F920FB60F9211242F93DB
:100A10008F939F93EF93FF93E0916901F0916A01A7
:100A20008081E0916F01F091700182FD1BC0908187
:100A3000809172018F5F8F7320917301821741F053
:100A4000E0917201F0E0E75AFE4F958F80937201BA
:100A5000FF91EF919F918F912F910F900FBE0F906B
:100A60001F9018958081F4CFE9E5F1E0138212829E
:100A700088EE93E0A0E0B0E084839583A683B783FB
:100A80008EE091E09183808385EC90E09587848768
:100A900084EC90E09787868780EC90E0918B808B48
:100AA00081EC90E0938B828B82EC90E0958B848B31
:100AB00086EC90E0978B868B118E128E138E148E9F
:100AC000ECEFF1E0118210821382128215821482FF
:100AD00050E040E06DE371E0CF010E944E03E6EF8D
:100AE000F1E011821082138212821582148250E08A
:100AF00040E06DE371E0CF010C944E03789484B52F
:100B0000826084BD84B5816084BD85B5826085BD09
:100B100085B5816085BD80916E00816080936E0097
:100B20001092810080918100826080938100809189
:100B3000810081608093810080918000816080933A
:100B400080008091B10084608093B1008091B000FA
:100B500081608093B00080917A00846080937A00F5
:100B600080917A00826080937A0080917A0081601F
:100B700080937A0080917A00806880937A00109246
:100B8000C100E0916901F0916A0182E08083E09107
:100B90006501F09166011082E0916701F0916801B2
:100BA0008FEC808310927101E0916D01F0916E01E4
:100BB00086E08083E0916B01F0916C01808180611F
:100BC0008083E0916B01F0916C018081886080836B
:100BD000E0916B01F0916C01808180688083E091ED
:100BE0006B01F0916C0180818F7D808362E082E0F7
:100BF0000E940D0160E083E00E940D018EE892E00A
:100C00009093010180930001809169008C7F816045
:100C100080936900E89A61E084E00E940D0161E040
:100C200085E00E940D0161E086E00E940D018CE1EB
:100C300091E00E94AC028BE391E00E94AC0204EBD5
:100C400010E0C2E3D0E082E3D82E61E086E00E94AB
:100C50000D01F8018491833009F485C050F481308E
:100C6000D1F0823009F47AC060E086E00E94DF00B3
:100C700016C0873009F481C0883009F486C08430FA
:100C800099F780918000806280938000D0938B00E0
:100C9000C0938A0004C084B5806884BDD7BC6091CD
:100CA0004E0170914F0180914C0190914D019B013B
:100CB000281B390B30934B0120934A01072E000C5F
:100CC000880B990B97FF69C00E94FD028BE391E0AE
:100CD0000E94AC0260914C0170914D01072E000CF6
:100CE000880B990B97FF5DC00E94FD028BE391E09A
:100CF0000E94AC02E0904A01F0904B0132E0E31612
:100D0000F1040CF452C060E084E00E94DF0061E076
:100D100085E00E94DF00E5E0EE0EF11CFBE0EF163F
:100D2000F104A0F460E084E00E94DF0060E085E070
:100D30000E94DF008EE391E00E94AC028BE391E021
:100D40000E94AC028BE391E00E94AC020E94F5018C
:100D5000882309F47ACF0E94790377CF84B5806223
:100D600084BDD8BC9CCF8091800080688093800037
:100D7000D0938900C093880092CF8091B0008068A2
:100D80008093B000D092B3008ACF8091B00080628F
:100D90008093B000D092B40082CF4AE00E94B902A2
:100DA00095CF4AE00E94B902A1CF61E084E00E94A1
:100DB000DF0060E085E00E94DF008FEFE816F806B4
:100DC0000CF4A9CFA0CF86EF91E00E941E038CEF18
:100DD00091E00C941E031F93FC0199278827BC0106
:100DE000E89411911032E9F3193010F01E30C8F375
:100DF0001B3251F01D3249F4689406C00E9412075C
:100E0000610F711D811D911D119110531A30B0F3A6
:100E10003EF490958095709561957F4F8F4F9F4FD1
:100E20001F910895592F482F372F262F660F771FB0
:100E3000881F991F660F771F881F991F620F731FE6
:100E4000841F951F660F771F881F991F0895E894C8
:100E500009C097FB3EF490958095709561957F4F02
:100E60008F4F9F4F9923A9F0F92F96E9BB279395B0
:100E7000F695879577956795B795F111F8CFFAF4C0
:100E8000BB0F11F460FF1BC06F5F7F4F8F4F9F4FF1
:100E900016C0882311F096E911C0772321F09EE84F
:100EA000872F762F05C0662371F096E8862F70E0B5
:100EB00060E02AF09A95660F771F881FDAF7880F8F
:100EC0009695879597F908950E9477070C94E807FF
:100ED0000E94DA0738F00E94E10720F0952311F014
:100EE0000C94D1070C94D70711240C941C080E9471
:100EF000F90770F3959FC1F3950F50E0551F629F5E
:100F0000F001729FBB27F00DB11D639FAA27F00D62
:100F1000B11DAA1F649F6627B00DA11D661F829F89
:100F20002227B00DA11D621F739FB00DA11D621F6E
:100F3000839FA00D611D221F749F3327A00D611D8B
:100F4000231F849F600D211D822F762F6A2F11246D
:100F50009F5750409AF0F1F088234AF0EE0FFF1FA0
:100F6000BB1F661F771F881F91505040A9F79E3FF7
:100F7000510580F00C94D1070C941C085F3FE4F3FA
:100F8000983ED4F3869577956795B795F795E7954D
:100F90009F5FC1F7FE2B880F911D9695879597F956
:100FA000089597F99F6780E870E060E008959FEFEB
:100FB00080EC089500240A941616170618060906F0
:100FC000089500240A9412161306140605060895BF
:100FD000092E0394000C11F4882352F0BB0F40F447
:100FE000BF2B11F460FF04C06F5F7F4F8F4F9F4F87
:100FF000089557FD9058440F551F59F05F3F71F009
:101000004795880F97FB991F61F09F3F79F087956F
:101010000895121613061406551FF2CF4695F1DFF8
:1010200008C0161617061806991FF1CF8695710588
:10103000610508940895E894BB2766277727CB01BC
:1010400097F908952F923F924F925F926F927F92FD
:101050008F929F92AF92BF92CF92DF92EF92FF92C8
:101060000F931F93CF93DF93CDB7DEB7CA1BDB0B74
:101070000FB6F894DEBF0FBECDBF09942A88398819
:1010800048885F846E847D848C849B84AA84B98420
:10109000C884DF80EE80FD800C811B81AA81B9812C
:1010A000CE0FD11D0FB6F894DEBF0FBECDBFED0140
:1010B00008950E9460086894B1110C941C0808956A
:1010C0000E94010888F09F5798F0B92F9927B751CF
:1010D000B0F0E1F0660F771F881F991F1AF0BA95DC
:1010E000C9F714C0B13091F00E941B08B1E0089517
:1010F0000C941B08672F782F8827B85F39F0B93F09
:10110000CCF3869577956795B395D9F73EF490958E
:101110008095709561957F4F8F4F9F4F0895A1E205
:101120001A2EAA1BBB1BFD010DC0AA1FBB1FEE1F61
:10113000FF1FA217B307E407F50720F0A21BB30BAC
:10114000E40BF50B661F771F881F991F1A9469F728
:1011500060957095809590959B01AC01BD01CF0184
:101160000895EE0FFF1F0590F491E02D09940F9361
:101170001F93CF93DF938230910510F482E090E0CB
:10118000E0910402F091050230E020E0B0E0A0E040
:10119000309799F42115310509F44AC0281B390B01
:1011A00024303105D8F58A819B816115710589F15B
:1011B000FB0193838283FE0111C040815181028132
:1011C000138148175907E0F04817590799F4109709
:1011D00061F012960C93129713961C933296CF01DE
:1011E000DF91CF911F910F91089500930402109306
:1011F0000502F4CF2115310551F04217530738F09D
:10120000A901DB019A01BD01DF01F801C1CFEF01A6
:10121000F9CF9093050280930402CDCFFE01E20F37
:10122000F31F819391932250310939832883D7CFBB
:101230002091020230910302232B41F420910601F8
:1012400030910701309303022093020220910401A0
:10125000309105012115310541F42DB73EB740917C
:10126000080150910901241B350BE0910202F09115
:101270000302E217F307A0F42E1B3F0B28173907D0
:1012800078F0AC014E5F5F4F2417350748F04E0FE2
:101290005F1F5093030240930202819391939FCF6B
:1012A000F0E0E0E09CCFCF93DF930097E9F0FC0102
:1012B000329713821282A0910402B0910502ED01CF
:1012C00030E020E01097A1F420813181820F931F3C
:1012D00020910202309103022817390709F061C0FA
:1012E000F0930302E0930202DF91CF910895EA01A7
:1012F000CE17DF07E8F54A815B819E014115510554
:10130000B1F7E901FB83EA8349915991C40FD51FD5
:10131000EC17FD0761F4808191810296840F951F7F
:10132000E90199838883828193819B838A83F0E09A
:10133000E0E012968D919C9113970097B9F52D914D
:101340003C911197CD010296820F931F20910202CA
:10135000309103022817390739F6309751F510926A
:10136000050210920402B0930302A0930202BCCFC4
:10137000D383C28340815181840F951FC817D90739
:1013800061F44E5F5F4F88819981480F591F5183E7
:1013900040838A819B81938382832115310509F0E3
:1013A000B0CFF0930502E09304029ECFFD01DC0173
:1013B000C0CF13821282D7CFB0E0A0E0E2EEF9E016
:1013C0000C9424088C01009751F4CB010E94B708BB
:1013D0008C01C801CDB7DEB7E0E10C944008FC01F8
:1013E000E60FF71F9C0122503109E217F30708F4BA
:1013F0009DC0D901CD91DC911197C617D70798F000
:10140000C530D10530F3CE0104978617970708F34E
:10141000C61BD70B2297C193D1936D937C93CF01B9
:101420000E945309D6CF5B01AC1ABD0A4C018C0E49
:101430009D1EA0910402B0910502512C412CF12C6B
:10144000E12C109731F580910202909103028815EA
:10145000990509F05CC04616570608F058C08091FF
:10146000040190910501009741F48DB79EB740911A
:10147000080150910901841B950BE817F90708F042
:1014800055C0F0930302E0930202F9017183608377
:10149000A0CF8D919C91119712966C9012971396F4
:1014A0007C901397A815B90559F56C0142E0C40E5C
:1014B000D11CCA14DB0420F1AC014A195B09DA0122
:1014C0001296159780F06282738251834083D9010E
:1014D0006D937C93E114F10471F0D7011396FC93A2
:1014E000EE93129776CF22968C0F9D1FF901918370
:1014F0008083F301EFCFF0930502E093040269CFFC
:101500004816590608F42C017D01D3019ACFCB016E
:101510000E94B7087C01009749F0AE01B8010E9413
:10152000990AC8010E945309870153CF10E000E0D7
:1015300050CFFB01DC0102C001900D9241505040A0
:10154000D8F70895FB01DC0101900D920020E1F72E
:10155000089510E0C2E6D0E004C0FE010E94B10888
:101560002196C336D107C9F7F894FFCF4A014A0143
:101570000000060280000000000021024B017801FB
:101580006E02E9018701DB01496E677265736520B0
:101590006C6173207675656C746173206465736526
:1015A00061646173203A000D0A0046696E616C69DE
:0615B0007A61646F000087
:107E0000112484B714BE81FFF0D085E080938100F7
:107E100082E08093C00088E18093C10086E0809377
:107E2000C20080E18093C4008EE0C9D0259A86E02C
:107E300020E33CEF91E0309385002093840096BBD3
:107E4000B09BFECF1D9AA8958150A9F7CC24DD24C4
:107E500088248394B5E0AB2EA1E19A2EF3E0BF2EE7
:107E6000A2D0813461F49FD0082FAFD0023811F036
:107E7000013811F484E001C083E08DD089C08234E0
:107E800011F484E103C0853419F485E0A6D080C0E4
:107E9000853579F488D0E82EFF2485D0082F10E0AE
:107EA000102F00270E291F29000F111F8ED06801E7
:107EB0006FC0863521F484E090D080E0DECF843638
:107EC00009F040C070D06FD0082F6DD080E0C81688
:107ED00080E7D80618F4F601B7BEE895C0E0D1E017
:107EE00062D089930C17E1F7F0E0CF16F0E7DF06D8
:107EF00018F0F601B7BEE89568D007B600FCFDCFD4
:107F0000A601A0E0B1E02C9130E011968C91119780
:107F100090E0982F8827822B932B1296FA010C0160
:107F200087BEE89511244E5F5F4FF1E0A038BF0790
:107F300051F7F601A7BEE89507B600FCFDCF97BE46
:107F4000E89526C08437B1F42ED02DD0F82E2BD052
:107F50003CD0F601EF2C8F010F5F1F4F84911BD097
:107F6000EA94F801C1F70894C11CD11CFA94CF0C13
:107F7000D11C0EC0853739F428D08EE10CD085E9AC
:107F80000AD08FE07ACF813511F488E018D01DD067
:107F900080E101D065CF982F8091C00085FFFCCF94
:107FA0009093C60008958091C00087FFFCCF809118
:107FB000C00084FD01C0A8958091C6000895E0E648
:107FC000F0E098E1908380830895EDDF803219F02E
:107FD00088E0F5DFFFCF84E1DECF1F93182FE3DFCA
:107FE0001150E9F7F2DF1F91089580E0E8DFEE27F6
:047FF000FF270994CA
:027FFE00040479
:00000001FF
