:100000000C94C8000C94F0000C94F0000C94F000D8
:100010000C94F0000C94F0000C94F0000C94F000A0
:100020000C94F0000C94F0000C94F0000C94F00090
:100030000C94F0000C94F0000C94F0000C94F00080
:100040000C9476050C94F0000C94E6050C94C00515
:100050000C94F0000C94F0000C94F0000C94F00060
:100060000C94F0000C94F00053652063616D62699C
:100070006F206C612076656C6F63696461642061D8
:100080003A2000496E6772657365206C6120766561
:100090006C6F636964616420656E207261642F73A4
:1000A0003A0043414D42494F2044452056454C4F6C
:1000B0004349444144002D2D2D4769726F20416E04
:1000C0007469686F726172696F2D2D2D00455354EC
:1000D00041444F3A20002D2D2D4170616761646FBE
:1000E0002D2D2D0045535441444F3A20002D2D2DE8
:1000F0004769726F20486F726172696F2D2D2D00F4
:1001000045737461646F3A2000340033003200316B
:100110000050726573696F6E6520756E61206F7037
:1001200063696F6E20312D333A20002020204D4529
:100130004E550000000000240027002A00000000A7
:1001400000250028002B00000000002300260029C5
:100150000004040404040404040202020202020370
:10016000030303030301020408102040800102047A
:1001700008102001020408102000000008000201FD
:100180000000030407000000000000000000B506A6
:1001900011241FBECFEFD8E0DEBFCDBF21E0A8E124
:1001A000B1E001C01D92A03CB207E1F711E0A0E070
:1001B000B1E0E0E2F1E102C005900D92A831B10793
:1001C000D9F710E0C8ECD0E004C02197FE010E94EE
:1001D0008808C73CD107C9F70E9418060C948E08FE
:1001E0000C940000833081F028F4813099F0823043
:1001F000A9F008958730A9F08830C9F08430B1F4AF
:10020000809180008F7D03C0809180008F778093E4
:100210008000089584B58F7784BD089584B58F7D5F
:10022000FBCF8091B0008F778093B00008958091CC
:10023000B0008F7DF9CFCF93DF93282F30E0F90105
:10024000E758FE4F8491F901EB59FE4FD491F90123
:10025000EF5AFE4FC491CC23A1F081110E94F2000D
:10026000EC2FF0E0EE0FFF1FE95BFE4FA591B4917C
:10027000EC91ED2381E090E009F480E0DF91CF91F3
:10028000089580E090E0FACF1F93CF93DF93282F5B
:1002900030E0F901E758FE4F8491F901EB59FE4F28
:1002A000D491F901EF5AFE4FC491CC23A9F0162F37
:1002B00081110E94F200EC2FF0E0EE0FFF1FE35CD3
:1002C000FE4FA591B4918FB7F894EC91111108C02D
:1002D000D095DE23DC938FBFDF91CF911F910895DE
:1002E000DE2BF8CFCF93DF9390E0FC01EB59FE4F6C
:1002F00024918F5A9E4FFC0184918823D1F090E085
:10030000880F991FFC01ED5CFE4FA591B491FC0193
:10031000E35CFE4FC591D49161110EC09FB7F89474
:100320008C91E22FE0958E238C932881E223E88341
:100330009FBFDF91CF9108958FB7F894EC91E22B96
:10034000EC938FBFF6CFCF93DF93EC0161E084E0B5
:100350000E947201209731F460E084E0DF91CF9138
:100360000C944401CF3FD10511F461E0F6CFEDE7E5
:10037000F1E0E491E33029F140F4E130B1F0E23012
:10038000D9F0C038D1058CF7E7CFE73021F1E8305C
:1003900051F1E430B1F78091800080628093800059
:1003A000D0938B00C0938A0004C084B5806884BD5C
:1003B000C7BDDF91CF91089584B5806284BDC8BD6B
:1003C000F8CF80918000806880938000D09389006E
:1003D000C0938800EECF8091B00080688093B00019
:1003E000C093B300E6CF8091B00080628093B000EC
:1003F000C093B400DECF3FB7F89480911D01909177
:100400001E01A0911F01B091200126B5A89B05C037
:100410002F3F19F00196A11DB11D3FBFBA2FA92F83
:10042000982F8827BC01CD01620F711D811D911D80
:1004300042E0660F771F881F991F4A95D1F70895EC
:100440008F929F92AF92BF92CF92DF92EF92FF92E4
:100450004B015C010E94FB016B017C010E94FB01CE
:100460006C197D098E099F09683E734081059105CD
:10047000A8F321E0821A9108A108B10888EEC80EFD
:1004800083E0D81EE11CF11C81149104A104B10485
:1004900029F7FF90EF90DF90CF90BF90AF909F90A3
:1004A0008F900895AF92BF92CF92DF92EF92FF921A
:1004B0000F931F93CF93DF936C017B018B01040F8C
:1004C000151FEB015E01AE18BF08C017D10759F028
:1004D0006991D601ED91FC910190F081E02DC6016A
:1004E0000995892B79F7C501DF91CF911F910F9164
:1004F000FF90EF90DF90CF90BF90AF900895FC01F8
:10050000538D448D252F30E0842F90E0821B930B78
:10051000541710F0CF96089501970895FC01918D1E
:10052000828D981761F0A28DAE0FBF2FB11D5D9621
:100530008C91928D9F5F9F73928F90E008958FEFC3
:100540009FEF0895FC01918D828D981731F0828D77
:10055000E80FF11D858D90E008958FEF9FEF0895CE
:10056000FC01918D228D892F90E0805C9F4F821B32
:1005700091098F739927089581E291E00E94B0025A
:1005800021E0892B09F420E0822F0895FC01A48D3D
:10059000A80FB92FB11DA35ABF4F2C91848D90E0A5
:1005A00001968F739927848FA689B7892C93A08988
:1005B000B1898C91837080648C93938D848D981312
:1005C00006C00288F389E02D80818F7D80830895A5
:1005D000EF92FF920F931F93CF93DF93EC0181E093
:1005E000888F9B8D8C8D98131AC0E889F98980813A
:1005F00085FF15C09FB7F894EE89FF896083E8896D
:10060000F98980818370806480839FBF81E090E05E
:10061000DF91CF911F910F91FF90EF900895F62EEB
:100620000B8D10E00F5F1F4F0F731127E02E8C8D85
:100630008E110CC00FB607FCFACFE889F9898081CA
:1006400085FFF5CFCE010E94C602F1CFEB8DEC0FF6
:10065000FD2FF11DE35AFF4FF0829FB7F8940B8FE7
:10066000EA89FB8980818062CFCF0F931F93CF935C
:10067000DF938C01D0E0C0E0F801EC0FFD1F649126
:10068000662341F081E291E00E94E802892B11F09B
:100690002196F2CFCE01DF91CF911F910F91089556
:1006A000CF93DF93EC01888D8823B9F0AA89BB89A9
:1006B000E889F9898C9185FD03C0808186FD0DC094
:1006C0000FB607FCF7CF8C9185FFF2CF808185FFB5
:1006D000EDCFCE010E94C602E9CFDF91CF91089500
:1006E000FC0101900020E9F73197AF01481B590B3D
:1006F000BC0181E291E00C94520285E191E00C94FE
:100700007003CF93DF930E943503EC010E947D03B9
:100710008C0F9D1FDF91CF9108950E947D038BE286
:1007200091E00E94810381E191E00E9481038FE0CA
:1007300091E00E9481038DE091E00E9481038BE0B3
:1007400091E00E94810389E091E00C9481038F92F3
:100750009F92AF92BF920F931F93CF93DF93CDB72A
:10076000DEB7A1970FB6F894DEBF0FBECDBF19A2BA
:10077000423008F44AE08E010F5D1F4F842E912C09
:10078000B12CA12CA50194010E941508E62FB901F6
:10079000CA01EA30F4F4E05DD801EE938D01232B19
:1007A000242B252B79F790E080E0109719F0CD01EC
:1007B0000E947003A1960FB6F894DEBF0FBECDBFA6
:1007C000DF91CF911F910F91BF90AF909F908F902D
:1007D0000895E95CE1CFCF92DF92EF92FF92CF9341
:1007E000DF936B017C016DE281E291E00E94E802FF
:1007F000EC0166277727CB016C197D098E099F09CB
:100800004AE00E94A7038C0F9D1FDF91CF91FF90BC
:10081000EF90DF90CF900895CF93DF93BC01990FB5
:10082000880B990B97FF0AC00E94EB03EC010E9412
:100830007D038C0F9D1FDF91CF9108954AE00E94A8
:10084000A703F4CF0F931F93CF93DF9386E00E940B
:100850001B018C0185E00E941B01EC0185E0809F5B
:10086000B001819F700D1124072E000C880B990B8D
:1008700097FF13C00E94EB0387E191E00E94700391
:1008800085E0282F2C9FC0012D9F900D1124DF9112
:10089000CF911F910F910C940C044AE00E94A70382
:1008A000EBCFCF92DF92EF92FF920F931F93CF93F4
:1008B000DF93CDB7DEB72A970FB6F894DEBF0FBE31
:1008C000CDBF64E170E080E090E00E94200281E210
:1008D00091E00E948E02182F8093020181E291E044
:1008E0000E94B002181619062CF481E291E00E94D1
:1008F0008E02F4CF123309F4A1C0A4F4113309F429
:1009000084C00E948D032A960FB6F894DEBF0FBEF6
:10091000CDBFDF91CF911F910F91FF90EF90DF90AE
:10092000CF900895133309F4A2C0143351F71092F5
:100930000101109200010E947D0382EA90E00E9472
:10094000810383E890E00E94810381E291E00E94AC
:10095000B002892BD1F3CE0101967C0110E000E0BA
:100960006C012FB7F8948091190190911A01A09110
:100970001B01B0911C012FBF8093290190932A0184
:10098000A0932B01B0932C0181E291E00E948E0292
:1009900097FF98C02FB7F8948091190190911A0190
:1009A000A0911B01B0911C012FBF409129015091D2
:1009B0002A0160912B0170912C01841B950BA60BD1
:1009C000B70B40912501509126016091270170914C
:1009D000280184179507A607B707B0F2F601E00FC4
:1009E000F11F108264E670E080E090E00E94200237
:1009F00081E291E00E94B002181619060CF04EC078
:100A000081E291E00E948E02F3CF61E082E00E94D9
:100A1000440160E083E00E944401809100019091D4
:100A200001010E94A3010E947D0380E091E00E94E9
:100A300035038DEE90E00E94810363CF60E082E099
:100A40000E94440160E083E00E94440190E080E065
:100A50000E94A3010E947D0384EE90E00E94350372
:100A600086ED90E00E9481030E9422044ACF60E05C
:100A700082E00E94440161E083E00E944401809191
:100A80000001909101010E94A3010E947D038DEC61
:100A900090E00E94350386EB90E0CDCF4AE050E035
:100AA00070E060E0C6010E94E2066B0170930101F4
:100AB0006093000188E690E00E943503C6010E9421
:100AC0000C041FCF8A30910509F488CFF701819378
:100AD0007F010F5F1F4F0930110509F042CF7ECF14
:100AE0000E94BC0281110C94510408951F920F9230
:100AF0000FB60F9211242F933F938F939F93AF9331
:100B0000BF938091190190911A01A0911B01B0919E
:100B10001C013091180123E0230F2D3758F5019661
:100B2000A11DB11D209318018093190190931A0102
:100B3000A0931B01B0931C0180911D0190911E0197
:100B4000A0911F01B09120010196A11DB11D8093BC
:100B50001D0190931E01A0931F01B0932001BF912E
:100B6000AF919F918F913F912F910F900FBE0F905A
:100B70001F90189526E8230F0296A11DB11DD2CF14
:100B80001F920F920FB60F9211242F933F934F9302
:100B90005F936F937F938F939F93AF93BF93EF93E5
:100BA000FF9381E291E00E94C602FF91EF91BF9115
:100BB000AF919F918F917F916F915F914F913F91F5
:100BC0002F910F900FBE0F901F9018951F920F92AC
:100BD0000FB60F9211242F938F939F93EF93FF9350
:100BE000E0913101F09132018081E0913701F09183
:100BF000380182FD1BC0908180913A018F5F8F7315
:100C000020913B01821741F0E0913A01F0E0EF5D65
:100C1000FE4F958F80933A01FF91EF919F918F91B5
:100C20002F910F900FBE0F901F9018958081F4CFD9
:100C3000789484B5826084BD84B5816084BD85B5B7
:100C4000826085BD85B5816085BD80916E008160C3
:100C500080936E0010928100809181008260809369
:100C6000810080918100816080938100809180006B
:100C70008160809380008091B10084608093B10096
:100C80008091B00081608093B00080917A00846090
:100C900080937A0080917A00826080937A008091BC
:100CA0007A00816080937A0080917A0080688093D6
:100CB0007A001092C100E0913101F091320182E09E
:100CC0008083E0912D01F0912E011082E0912F019F
:100CD000F09130018FEC808310923901E091350161
:100CE000F091360186E08083E0913301F091340188
:100CF000808180618083E0913301F09134018081B3
:100D000088608083E0913301F091340180818068B4
:100D10008083E0913301F091340180818F7D808365
:100D200060E086E00E94720160E085E00E9472014E
:100D300061E082E00E94720161E083E00E94720142
:100D400061E084E00E9472010E948D030E942204EF
:100D500068EB7BE080E090E00E9420020E94BC02F1
:100D60008823A1F30E945104F1CFE1E2F1E0138264
:100D7000128288EE93E0A0E0B0E084839583A6839E
:100D8000B78387E091E09183808385EC90E095873D
:100D9000848784EC90E09787868780EC90E0918B45
:100DA000808B81EC90E0938B828B82EC90E0958B32
:100DB000848B86EC90E0978B868B118E128E138E2F
:100DC000148E0895B0E0A0E0E8EEF6E00C9443083D
:100DD0005C016B017A016115710519F0FB019183CA
:100DE0008083E114F10451F0C7010297839730F03A
:100DF00040E030E020E090E072C05E01E501219625
:100E0000F5011081812F90E00E94F907892BA9F745
:100E10001D3201F52196F501118101E0E114F10483
:100E200009F4DAC0F0E1EF16F10409F082C01033E2
:100E300059F488818F7D883509F076C01981229612
:100E40000260F0E1EF2EF12C812C912CA12C88E096
:100E5000B82E8CC01B3221F4E5012296F5011181D8
:100E600000E0DCCFEAE0EE16F10409F4BBC0F0E1EB
:100E7000EF16F10409F06DC0E7CF78E0E72EF12C12
:100E8000812C912CA12C60E1B62E70C03FE9310F6E
:100E90003A3128F439EA332E80C021E09AC0302F4D
:100EA0003170C114D10431F0222309F12197F601E8
:100EB000D183C08327FF21C060E070E080E090E82C
:100EC000311104C06FEF7FEF8FEF9FE722E230E038
:100ED0003093BF012093BE01462F372F282F642F58
:100EE000732F822FCDB7DEB7E1E10C945F0801FFCD
:100EF00004C02297F601D183C083332341F090953B
:100F00008095709561957F4F8F4F9F4FE5CF97FFED
:100F1000E3CF82E290E09093BF018093BE016FEF38
:100F20007FEF8FEF9FE7D8CF10E3E114F10409F4CE
:100F3000A4CF28E0E216F10409F4A2CF0CF092CF7E
:100F4000812C912CA12CE0E4BE2E82E0E816F10465
:100F500069F060E070E080E090E897010F2C000CF1
:100F6000440B550B0E94150849015A0120E060E02E
:100F700070E0CB0127010F2C000C66087708FE01FA
:100F800050ED352E310E39E0331540F43FEB310F83
:100F90003A3108F07BCF49EC342E310E3E141F0459
:100FA0000CF07DCF27FD15C086169706A806B9065A
:100FB00078F0A30192010E940508630D711D811D47
:100FC000911D61307105810520E8920708F465CF15
:100FD0002FEF21961081D3CF103309F42ACF2AE0C6
:100FE000E22EF12C9CEC892E982CA82C9CE0B92E9A
:100FF000BDCF91110C940208803219F089508550B0
:10100000C8F70895992788270895DB018F939F9348
:101010000E943708BF91AF91A29F800D911DA39FA1
:10102000900DB29F900D11240895A1E21A2EAA1BD3
:10103000BB1BFD010DC0AA1FBB1FEE1FFF1FA21788
:10104000B307E407F50720F0A21BB30BE40BF50B85
:10105000661F771F881F991F1A9469F7609570950E
:10106000809590959B01AC01BD01CF0108950E9430
:101070007908A59F900DB49F900DA49F800D911DA0
:10108000112408952F923F924F925F926F927F9218
:101090008F929F92AF92BF92CF92DF92EF92FF9288
:1010A0000F931F93CF93DF93CDB7DEB7CA1BDB0B34
:1010B0000FB6F894DEBF0FBECDBF09942A883988D9
:1010C00048885F846E847D848C849B84AA84B984E0
:1010D000C884DF80EE80FD800C811B81AA81B981EC
:1010E000CE0FD11D0FB6F894DEBF0FBECDBFED0100
:1010F0000895A29FB001B39FC001A39F700D811DF1
:101100001124911DB29F700D811D1124911D089510
:10111000EE0FFF1F0590F491E02D0994F894FFCF96
:101120002C013000000000E80252027F025003B0A0
:08113000028E02A2020D0A006A
:00000001FF
