:020000040000FA
:100000000C9481000C9469040C9442040C94A90093
:100010000C94A9000C94A9000C94A9000C94A900BC
:100020000C94A9000C94A9000C94A9000C94A900AC
:100030000C94A9000C94A9000C94A9000C94A9009C
:100040000C94F8030C94A9000C94B6040C9490043E
:100050000C94A9000C94A9000C94A9000C94A9007C
:100060000C94A9000C94A9004E414E494E49545994
:10007000494E46CDCCCC3D0AD7233C17B7D1387773
:10008000CC2B329595E6241FB14F0A000020410089
:1000900000C84200401C4620BCBE4CCA1B0E5AAED3
:1000A000C59D7400000000240027002A0000000005
:1000B00000250028002B0000000000230026002956
:1000C0000004040404040404040202020202020301
:1000D000030303030301020408102040800102040B
:1000E000081020010204081020000000080002018E
:1000F0000000030407000000000000000000E80406
:100100007C0711241FBECFEFD8E0DEBFCDBF22E0B9
:10011000A4E4B1E001C01D92A231B207E1F711E001
:10012000A0E0B1E0E4E3FAE102C005900D92A4344E
:10013000B107D9F710E0C0E8D0E004C02197FE0174
:100140000E94150BCF37D107C9F70E9423050C94E5
:100150000D0D0C940000833081F028F4813099F06B
:100160008230A9F008958730A9F08830C9F0843032
:10017000B1F4809180008F7D03C0809180008F77E3
:1001800080938000089584B58F7784BD089584B5E9
:100190008F7DFBCF8091B0008F778093B000089562
:1001A0008091B0008F7DF9CFCF93DF93282F30E07F
:1001B000F901E751FF4F8491F901EB52FF4FD491C0
:1001C000F901EF53FF4FC491CC23A1F081110E949C
:1001D000AB00EC2FF0E0EE0FFF1FE954FF4FA591AD
:1001E000B491EC91ED2381E090E009F480E0DF919F
:1001F000CF91089580E090E0FACF1F93CF93DF93E3
:10020000282F30E0F901E751FF4F8491F901EB52BB
:10021000FF4FD491F901EF53FF4FC491CC23A9F0C4
:10022000162F81110E94AB00EC2FF0E0EE0FFF1FA4
:10023000E355FF4FA591B4918FB7F894EC9111114C
:1002400008C0D095DE23DC938FBFDF91CF911F9143
:100250000895DE2BF8CFCF93DF9390E0FC01EB52B3
:10026000FF4F24918F539F4FFC0184918823C9F045
:1002700090E0880F991FFC01ED55FF4FA591B491B7
:10028000FC01E355FF4FC591D49161110DC09FB79B
:10029000F8948C91209582238C938881282328833D
:1002A0009FBFDF91CF910895623051F49FB7F894CA
:1002B0003C91822F809583238C93E8812E2BEFCF66
:1002C0008FB7F894EC912E2B2C938FBFEACF089523
:1002D0000895AF92BF92CF92DF92EF92FF920F9369
:1002E0001F93CF93DF936C017B018B01040F151FCC
:1002F000EB015E01AE18BF08C017D10759F0699134
:10030000D601ED91FC910190F081E02DC601099597
:10031000892B79F7C501DF91CF911F910F91FF9044
:10032000EF90DF90CF90BF90AF900895FC01538D78
:10033000448D252F30E0842F90E0821B930B5417BF
:1003400010F0CF96089501970895FC01918D828D4C
:10035000981761F0A28DAE0FBF2FB11D5D968C91E5
:10036000928D9F5F9F73928F90E008958FEF9FEF24
:1003700008952FB7F8948091650190916601A0913E
:100380006701B09168012FBF809371019093720152
:10039000A0937301B093740189E691E00E94A501D6
:1003A00097FF26C02FB7F894809165019091660160
:1003B000A0916701B09168012FBF409171015091E8
:1003C00072016091730170917401841B950BA60BEF
:1003D000B70B40916D0150916E0160916F0170916A
:1003E000700184179507A607B707B0F28FEF9FEF4C
:1003F0000895FC01918D828D981731F0828DE80F60
:10040000F11D858D90E008958FEF9FEF0895FC0119
:10041000918D228D892F90E0805C9F4F821B9109E6
:100420008F739927089589E691E00E94070221E0E1
:10043000892B09F420E0822F0895FC01A48DA80FD8
:10044000B92FB11DA35ABF4F2C91848D90E0019616
:100450008F739927848FA689B7892C93A089B18936
:100460008C91837080648C93938D848D981306C0D7
:100470000288F389E02D80818F7D80830895EF923B
:10048000FF920F931F93CF93DF93EC0181E0888F4E
:100490009B8D8C8D98131AC0E889F989808185FF1E
:1004A00015C09FB7F894EE89FF896083E889F989C0
:1004B00080818370806480839FBF81E090E0DF91C2
:1004C000CF911F910F91FF90EF900895F62E0B8D15
:1004D00010E00F5F1F4F0F731127E02E8C8D8E11D0
:1004E0000CC00FB607FCFACFE889F989808185FF37
:1004F000F5CFCE010E941D02F1CFEB8DEC0FFD2F49
:10050000F11DE35AFF4FF0829FB7F8940B8FEA89F1
:10051000FB8980818062CFCFCF93DF93EC01888D00
:100520008823B9F0AA89BB89E889F9898C9185FD6E
:1005300003C0808186FD0DC00FB607FCF7CF8C91FC
:1005400085FFF2CF808185FFEDCFCE010E941D0295
:10055000E9CFDF91CF910895CF93DF9382E00E949E
:10056000D400EC0183E00E94D400C817D90761F4DD
:1005700080914E0190914F01019690934F0180938D
:100580004E01DF91CF91089580914E0190914F01DE
:100590000197F3CFFC0180819181009711F00C94B9
:1005A000B70B08950F931F93CF93DF93EC018881CE
:1005B0009981009759F02A813B812617370730F03F
:1005C00081E0DF91CF911F910F9108958B016F5FB3
:1005D0007F4F0E94400C009759F0998388831B83BA
:1005E0000A832C813D81232B59F7FC011082E8CF2F
:1005F00080E0E7CFEF92FF920F931F93CF93DF93AB
:10060000EC017B018A01BA010E94D2022881398162
:10061000811114C02115310519F0C9010E94B70BD1
:10062000198218821D821C821B821A82CE01DF91E0
:10063000CF911F910F91FF90EF9008951D830C8330
:10064000B701C9010E94060DF1CFCF92DF92EF9260
:10065000FF920F931F93CF93DF93CDB7DEB7289709
:100660000FB6F894DEBF0FBECDBF89E691E00E94C1
:100670000702892BD1F31A8219821C821B821E82E7
:100680001D8250E040E063E471E0CE0101960E94DB
:10069000FA020E94B90197FD1EC08A309105D9F077
:1006A0008F8318860D811E810F5F1F4FB801CE0109
:1006B00001960E94D202882361F329813A818D81BB
:1006C0009E81BE01695F7F4F820F931F0E94060DBE
:1006D0001E830D83DECF8091060290910702009762
:1006E00009F469C069817A816115710509F461C0F5
:1006F00040910802509109022D813E814217530713
:1007000008F457C00E94060D8D819E8190930B02C4
:1007100080930A021E821D82CE0101960E94CA02A7
:100720001A8219821C821B821E821D82609106021F
:10073000709107026115710541F040910A025091D4
:100740000B02CE0101960E94FA0289819A81C12C86
:10075000D12C7601009721F00E9480076B017C016B
:10076000CE0101960E94CA022AE939E94AEA53E415
:10077000C701B6010E945B0920E030E040E05EE383
:100780000E945B0960935001709351018093520164
:100790009093530128960FB6F894DEBF0FBECDBFDD
:1007A000DF91CF911F910F91FF90EF90DF90CF904D
:1007B00008950E94B70B89819A81909307028093D4
:1007C00006028B819C8190930902809308028D819F
:1007D0009E8190930B0280930A021A8219821C82D6
:1007E0001B8298CF0E94130281110C942503089557
:1007F0001F920F920FB60F9211242F933F938F9356
:100800009F93AF93BF938091650190916601A091F2
:100810006701B09168013091640123E0230F2D3707
:1008200058F50196A11DB11D2093640180936501C7
:1008300090936601A0936701B09368018091600175
:1008400090916101A0916201B09163010196A11D97
:10085000B11D8093600190936101A0936201B093F8
:100860006301BF91AF919F918F913F912F910F9015
:100870000FBE0F901F90189526E8230F0296A11D1A
:10088000B11DD2CF1F920F920FB60F9211242F934A
:100890003F934F935F936F937F938F939F93AF9308
:1008A000BF93EF93FF93E0910201F091030109954B
:1008B000FF91EF91BF91AF919F918F917F916F9138
:1008C0005F914F913F912F910F900FBE0F901F900E
:1008D00018951F920F920FB60F9211242F933F93EA
:1008E0004F935F936F937F938F939F93AF93BF9338
:1008F000EF93FF93E0910001F09101010995FF91C1
:10090000EF91BF91AF919F918F917F916F915F9187
:100910004F913F912F910F900FBE0F901F90189500
:100920001F920F920FB60F9211242F933F934F9364
:100930005F936F937F938F939F93AF93BF93EF9347
:10094000FF9389E691E00E941D02FF91EF91BF9114
:10095000AF919F918F917F916F915F914F913F9157
:100960002F910F900FBE0F901F9018951F920F920E
:100970000FB60F9211242F938F939F93EF93FF93B2
:10098000E0917901F0917A018081E0917F01F0910D
:10099000800182FD1BC09081809182018F5F8F73E7
:1009A00020918301821741F0E0918201F0E0E75944
:1009B000FE4F958F80938201FF91EF919F918F91D0
:1009C0002F910F900FBE0F901F9018958081F4CF3C
:1009D000E9E6F1E01382128288EE93E0A0E0B0E055
:1009E00084839583A683B7838EE091E0918380838F
:1009F00085EC90E09587848784EC90E097878687E4
:100A000080EC90E0918B808B81EC90E0938B828BDB
:100A100082EC90E0958B848B86EC90E0978B868BB4
:100A2000118E128E138E148EE6E0F2E01182108287
:100A3000138212821582148250E040E063E471E078
:100A4000CF010C94FA02789484B5826084BD84B599
:100A5000816084BD85B5826085BD85B5816085BDB9
:100A600080916E00816080936E0010928100809171
:100A700081008260809381008091810081608093F9
:100A80008100809180008160809380008091B1001E
:100A900084608093B1008091B00081608093B00049
:100AA00080917A00846080937A0080917A008260DD
:100AB00080937A0080917A00816080937A0080919F
:100AC0007A00806880937A001092C100E0917901E9
:100AD000F0917A0182E08083E0917501F0917601D6
:100AE0001082E0917701F091780180E1808310928B
:100AF0008101E0917D01F0917E0186E08083E091AB
:100B00007B01F0917C01808180618083E0917B0199
:100B1000F0917C01808188608083E0917B01F0917D
:100B20007C01808180688083E0917B01F0917C0171
:100B300080818F7D808362E082E00E942B0160E0F3
:100B400083E00E942B018CEA92E090930101809354
:100B50000001809169008C7F816080936900E89A30
:100B600061E084E00E942B0161E085E00E942B019E
:100B700061E086E00E942B0144E250E06CE171E00C
:100B800089E691E00E94690142E050E061E471E091
:100B900089E691E00E9469018FEE282E80E0382ED0
:100BA00002E810E0CFEFD0E02FB7F8946091650134
:100BB0007091660180916701909168012FBF0E943A
:100BC000FA086B017C0160915C0170915D0180917C
:100BD0005E0190915F010E94FA0820E030E048E455
:100BE00053E40E946E0A9B01AC01C701B6010E944A
:100BF000100B18160CF0D6C02FB7F8948091650131
:100C000090916601A0916701B09168012FBF809318
:100C10005C0190935D01A0935E01B0935F014090F1
:100C20005401509055016090560170905701C0904A
:100C30005801D0905901E0905A01F0905B01C092A8
:100C40005401D0925501E0925601F0925701609103
:100C50004E0170914F01072E000C880B990B0E94DA
:100C6000FC089B01AC016091500170915101809191
:100C70005201909153010E946D0A60935801709344
:100C8000590180935A0190935B0124E73FEE41E3C1
:100C90005FE30E945B094B015C012CE03CEA43E806
:100CA0005EEBC701B6010E945B096B017C0124EA7F
:100CB00030E74DEB5EEBC301B2010E945B092B01F3
:100CC0003C0120E030E0A90160914A0170914B01A4
:100CD00080914C0190914D010E94100B6091480150
:100CE0007091490187FD8BC0072E000C880B990B72
:100CF0000E94FC0860934401709345018093460173
:100D00009093470120914401309145014091460163
:100D100050914701C501B4010E946E0AA7019601D6
:100D20000E946E0AA30192010E946E0A6B017C016F
:100D3000C0924A01D0924B01E0924C01F0924D01D9
:100D400020E030E0A9010E94100B18160CF05BC0E7
:100D5000C701B6010E94DA0A6F3F71050CF057C057
:100D60007093490160934801809148019091490135
:100D7000833891053CF4C3970CF04EC010924901A2
:100D800010924801E0904801F090490161E086E04E
:100D90000E942B01E114F10409F043C060E086E0F9
:100DA0000E94FD00C0905801D0905901E0905A0176
:100DB000F0905B0120E030E040E751E4C701B6016C
:100DC0000E94F50818160CF474C020E030E040E7EB
:100DD00051ECC701B6010E94100B87FD6AC060E0AC
:100DE00084E00E94FD0060E085E00E94FD000E941A
:100DF0001302882309F4D8CE0E942503D5CE71951D
:100E00006195710971CFC701B6019058A3CFD093F6
:100E10004901C0934801A8CF1093490100934801AC
:100E2000B1CF8FEFE816F10411F461E0B8CFF10112
:100E30008491833021F148F48130B9F08230D1F0CF
:100E4000F0E8EF16F1048CF7A9CF873011F1883064
:100E500041F18430A9F78091800080628093800006
:100E6000F0928B00E0928A009DCF84B5806884BDAB
:100E7000E7BC98CF84B5806284BDE8BC93CF8091F5
:100E80008000806880938000F0928900E092880062
:100E900089CF8091B00080688093B000E092B30069
:100EA00081CF8091B00080628093B000E092B40066
:100EB00079CF20E030E040EA50ECC701B6010E9453
:100EC000F50887FF08C061E084E00E94FD0060E053
:100ED00085E00E94FD0020E030E040EA50E4C701D8
:100EE000B6010E94100B18160CF081CF60E084E070
:100EF0000E94FD0061E078CF86E092E00C94CA0287
:100F0000662777270C948407B0E0A0E0EAE8F7E0D2
:100F10000C942D0A5C017B016115710519F0DB0150
:100F20008D939C9385010F5F1F4FF501D0818D2F0D
:100F300090E00E94D4086C01892BB9F5DD32B9F537
:100F40000F5F1F4FD5011196DC91C1E05801F1E010
:100F5000AF1AB10843E050E060E770E0C5010E94BD
:100F6000DD08892B69F5680182E0C80ED11C45E0D7
:100F700050E06BE670E0C6010E94DD08892B21F489
:100F8000680197E0C90ED11CE114F10419F0D701F2
:100F9000CD92DC9260E070E080E89FEFC111FFC06D
:100FA00060E070E080E89FE7FAC05801BBCFDB3219
:100FB00029F485010E5F1F4FF501D181C0E0C6CF36
:100FC00043E050E068E670E0C5010E94DD08892B2F
:100FD000E9F0F80110E000E020E030E0A9015F0155
:100FE000B0ED8B2E8D0E89E08815C8F19C2E68948B
:100FF00091F88C2F8870C2FF16C0811102C00F5F5C
:101000001F4F3196D501DC91C92DE9CFE114F104D0
:1010100029F00E5F1F4FF7011183008360E070E03D
:1010200080EC9FE7BCC0882311F001501109A5E0B6
:10103000B0E00E941C0A9B01AC01220F331F441F29
:10104000551F280D311D411D511D283999E93907BA
:10105000490799E15907A8F2C6609C2ED2CFAEEF9E
:101060008A1206C0C3FD3CC09C2E689493F8C9CF79
:10107000DF7DD534A9F580818D3239F4C061DF017F
:101080001296818162E070E006C0DF018B32C1F30D
:10109000119661E070E080535D01A61AB70A8A30AC
:1010A000F8F4E0E8CE16ECE0DE065CF4B601660F7C
:1010B000771F660F771FC60ED71ECC0CDD1CC80E1F
:1010C000D11C5D01FFEFAF1ABF0A8C9180538A30AB
:1010D000A8F1C4FF03C0D194C194D1080C0D1D1D0B
:1010E000C1FF09C0E114F10431F081E0A81AB10890
:1010F000D701AD92BC92CA01B9010E94FA08C3702F
:10110000C33009F490584B015C0120E030E0A901A4
:101110000E94F508882309F440C0CFE9D0E017FF0A
:1011200005C0119501951109C7E8D0E06E01B8E13D
:10113000CB1AD10880E2E82EF12C0FC0D501B1CF37
:10114000FE0125913591459154910E191F09C50154
:10115000B4010E945B094B015C01D501C4010E156D
:101160001F0574F72497F594E794CC16DD06A9F7CC
:101170008A2F880F8B2F881F8F3F49F020E030E0A7
:10118000A901C501B4010E94F508811106C082E2DF
:1011900090E090930D0280930C02C501B401CDB78D
:1011A000DEB7ECE00C94490A91110C94C809803226
:1011B00019F089508550C8F70895FB01DC014150B2
:1011C000504088F08D9181341CF08B350CF4805E9A
:1011D000659161341CF06B350CF4605E861B611107
:1011E00071F3990B0895881BFCCF0E94370908F40E
:1011F00081E00895E89409C097FB3EF490958095AE
:10120000709561957F4F8F4F9F4F9923A9F0F92FCC
:1012100096E9BB279395F695879577956795B7954A
:10122000F111F8CFFAF4BB0F11F460FF1BC06F5F30
:101230007F4F8F4F9F4F16C0882311F096E911C042
:10124000772321F09EE8872F762F05C0662371F063
:1012500096E8862F70E060E02AF09A95660F771F77
:10126000881FDAF7880F9695879597F90895990F53
:101270000008550FAA0BE0E8FEEF16161706E80760
:10128000F907C0F012161306E407F50798F0621B81
:10129000730B840B950B39F40A2661F0232B242B56
:1012A000252B21F408950A2609F4A140A6958FEF75
:1012B000811D811D08950E946E090C94E2090E940F
:1012C000D40938F00E94DB0920F0952311F00C942A
:1012D000CB090C94D10911240C94160A0E94F3092D
:1012E00070F3959FC1F3950F50E0551F629FF00179
:1012F000729FBB27F00DB11D639FAA27F00DB11D92
:10130000AA1F649F6627B00DA11D661F829F22271A
:10131000B00DA11D621F739FB00DA11D621F839FA1
:10132000A00D611D221F749F3327A00D611D231F77
:10133000849F600D211D822F762F6A2F11249F57C5
:1013400050409AF0F1F088234AF0EE0FFF1FBB1FC8
:10135000661F771F881F91505040A9F79E3F510587
:1013600080F00C94CB090C94160A5F3FE4F3983E8E
:10137000D4F3869577956795B795F795E7959F5F31
:10138000C1F7FE2B880F911D9695879597F90895C3
:1013900099278827089597F99F6780E870E060E0B3
:1013A00008959FEF80EC089500240A9416161706FE
:1013B00018060906089500240A9412161306140646
:1013C00005060895092E0394000C11F4882352F0A9
:1013D000BB0F40F4BF2B11F460FF04C06F5F7F4F61
:1013E0008F4F9F4F089557FD9058440F551F59F048
:1013F0005F3F71F04795880F97FB991F61F09F3F02
:1014000079F087950895121613061406551FF2CF2A
:101410004695F1DF08C0161617061806991FF1CF7A
:1014200086957105610508940895E894BB276627A1
:101430007727CB0197F908950E945E0AA59F900D2A
:10144000B49F900DA49F800D911D112408952F929B
:101450003F924F925F926F927F928F929F92AF9244
:10146000BF92CF92DF92EF92FF920F931F93CF9391
:10147000DF93CDB7DEB7CA1BDB0B0FB6F894DEBF28
:101480000FBECDBF09942A88398848885F846E844E
:101490007D848C849B84AA84B984C884DF80EE8098
:1014A000FD800C811B81AA81B981CE0FD11D0FB6A1
:1014B000F894DEBF0FBECDBFED010895A29FB0012D
:1014C000B39FC001A39F700D811D1124911DB29F78
:1014D000700D811D1124911D08955058BB27AA2716
:1014E0000E94850A0C94E2090E94D40938F00E94F7
:1014F000DB0920F039F49F3F19F426F40C94D1094C
:101500000EF4E095E7FB0C94CB09E92F0E94F30958
:1015100058F3BA17620773078407950720F079F428
:10152000A6F50C94150A0EF4E0950B2EBA2FA02DFB
:101530000B01B90190010C01CA01A0011124FF2780
:10154000591B99F0593F50F4503E68F11A16F0407B
:10155000A22F232F342F4427585FF3CF469537957A
:101560002795A795F0405395C9F77EF41F16BA0B3F
:10157000620B730B840BBAF09150A1F0FF0FBB1FED
:10158000661F771F881FC2F70EC0BA0F621F731F36
:10159000841F48F4879577956795B795F7959E3F93
:1015A00008F0B0CF9395880F08F09927EE0F979524
:1015B000879508950E94E10A6894B1110C94160A67
:1015C00008950E94FB0988F09F5798F0B92F99273A
:1015D000B751B0F0E1F0660F771F881F991F1AF01E
:1015E000BA95C9F714C0B13091F00E94150AB1E064
:1015F00008950C94150A672F782F8827B85F39F063
:10160000B93FCCF3869577956795B395D9F73EF4B6
:1016100090958095709561957F4F8F4F9F4F08955E
:101620000E94370908F48FEF0895EE0FFF1F059011
:10163000F491E02D09940F931F93CF93DF938230A1
:10164000910510F482E090E0E0911002F091110217
:1016500030E020E0B0E0A0E0309799F421153105AA
:1016600009F44AC0281B390B24303105D8F58A818A
:101670009B816115710589F1FB0193838283FE01D2
:1016800011C0408151810281138148175907E0F050
:101690004817590799F4109761F012960C93129716
:1016A00013961C933296CF01DF91CF911F910F912A
:1016B00008950093100210931102F4CF2115310503
:1016C00051F04217530738F0A901DB019A01BD011F
:1016D000DF01F801C1CFEF01F9CF909311028093A0
:1016E0001002CDCFFE01E20FF31F819391932250A0
:1016F000310939832883D7CF20910E0230910F0210
:10170000232B41F4209106013091070130930F0201
:1017100020930E022091040130910501211531051D
:1017200041F42DB73EB74091080150910901241BA7
:10173000350BE0910E02F0910F02E217F307A0F4CF
:101740002E1B3F0B2817390778F0AC014E5F5F4F17
:101750002417350748F04E0F5F1F50930F02409338
:101760000E02819391939FCFF0E0E0E09CCFCF9366
:10177000DF930097E9F0FC01329713821282A09167
:101780001002B0911102ED0130E020E01097A1F4B9
:1017900020813181820F931F20910E0230910F0220
:1017A0002817390709F061C0F0930F02E0930E0289
:1017B000DF91CF910895EA01CE17DF07E8F54A815E
:1017C0005B819E0141155105B1F7E901FB83EA8375
:1017D00049915991C40FD51FEC17FD0761F4808121
:1017E00091810296840F951FE901998388838281F4
:1017F00093819B838A83F0E0E0E012968D919C9127
:1018000013970097B9F52D913C911197CD01029650
:10181000820F931F20910E0230910F022817390773
:1018200039F6309751F51092110210921002B093D0
:101830000F02A0930E02BCCFD383C283408151819B
:10184000840F951FC817D90761F44E5F5F4F8881D9
:101850009981480F591F518340838A819B819383CB
:1018600082832115310509F0B0CFF0931102E09386
:1018700010029ECFFD01DC01C0CF13821282D7CFB0
:10188000B0E0A0E0E6E4FCE00C94290A8C010097AB
:1018900051F4CB010E941B0B8C01C801CDB7DEB700
:1018A000E0E10C94450AFC01E60FF71F9C01225071
:1018B0003109E217F30708F49DC0D901CD91DC91FD
:1018C0001197C617D70798F0C530D10530F3CE0170
:1018D00004978617970708F3C61BD70B2297C19367
:1018E000D1936D937C93CF010E94B70BD6CF5B0150
:1018F000AC1ABD0A4C018C0E9D1EA0911002B09135
:101900001102512C412CF12CE12C109731F58091D2
:101910000E0290910F028815990509F05CC04616D9
:10192000570608F058C08091040190910501009776
:1019300041F48DB79EB74091080150910901841B75
:10194000950BE817F90708F055C0F0930F02E093E4
:101950000E02F90171836083A0CF8D919C91119744
:1019600012966C90129713967C901397A815B90550
:1019700059F56C0142E0C40ED11CCA14DB0420F1FD
:10198000AC014A195B09DA011296159780F0628260
:10199000738251834083D9016D937C93E114F104E8
:1019A00071F0D7011396FC93EE93129776CF22969F
:1019B0008C0F9D1FF90191838083F301EFCFF0938A
:1019C0001102E093100269CF4816590608F42C0161
:1019D0007D01D3019ACFCB010E941B0B7C010097A4
:1019E00049F0AE01B8010E94FD0CC8010E94B70B7E
:1019F000870153CF10E000E050CFFB01DC0102C0B3
:101A000001900D9241505040D8F70895FB01DC0140
:101A100001900D920020E1F7089510E0C0E8D0E0B9
:101A200004C0FE010E94150B2196C138D107C9F7E9
:101A3000F894FFCF680168010000120280000000E6
:101A400000003F02690196018C020702A501F9011D
:101A5000496E6772657365206C6120646973746197
:101A60006E63696120656E206D696C696D65747265
:081A70006F73203A000D0A001B
:107E0000112484B714BE81FFF0D085E080938100F7
:107E100082E08093C00088E18093C10086E0809377
:107E2000C20080E18093C4008EE0C9D0259A86E02C
:107E300020E33CEF91E0309385002093840096BBD3
:107E4000B09BFECF1D9AA8958150A9F7CC24DD24C4
:107E500088248394B5E0AB2EA1E19A2EF3E0BF2EE7
:107E6000A2D0813461F49FD0082FAFD0023811F036
:107E7000013811F484E001C083E08DD089C08234E0
:107E800011F484E103C0853419F485E0A6D080C0E4
:107E9000853579F488D0E82EFF2485D0082F10E0AE
:107EA000102F00270E291F29000F111F8ED06801E7
:107EB0006FC0863521F484E090D080E0DECF843638
:107EC00009F040C070D06FD0082F6DD080E0C81688
:107ED00080E7D80618F4F601B7BEE895C0E0D1E017
:107EE00062D089930C17E1F7F0E0CF16F0E7DF06D8
:107EF00018F0F601B7BEE89568D007B600FCFDCFD4
:107F0000A601A0E0B1E02C9130E011968C91119780
:107F100090E0982F8827822B932B1296FA010C0160
:107F200087BEE89511244E5F5F4FF1E0A038BF0790
:107F300051F7F601A7BEE89507B600FCFDCF97BE46
:107F4000E89526C08437B1F42ED02DD0F82E2BD052
:107F50003CD0F601EF2C8F010F5F1F4F84911BD097
:107F6000EA94F801C1F70894C11CD11CFA94CF0C13
:107F7000D11C0EC0853739F428D08EE10CD085E9AC
:107F80000AD08FE07ACF813511F488E018D01DD067
:107F900080E101D065CF982F8091C00085FFFCCF94
:107FA0009093C60008958091C00087FFFCCF809118
:107FB000C00084FD01C0A8958091C6000895E0E648
:107FC000F0E098E1908380830895EDDF803219F02E
:107FD00088E0F5DFFFCF84E1DECF1F93182FE3DFCA
:107FE0001150E9F7F2DF1F91089580E0E8DFEE27F6
:047FF000FF270994CA
:027FFE00040479
:00000001FF
