:100000000C9481000C94BA040C9493040C94A900F1
:100010000C94A9000C94A9000C94A9000C94A900BC
:100020000C94A9000C94A9000C94A9000C94A900AC
:100030000C94A9000C94A9000C94A9000C94A9009C
:100040000C9449040C94A9000C9407050C94E10449
:100050000C94A9000C94A9000C94A9000C94A9007C
:100060000C94A9000C94A9004E414E494E49545994
:10007000494E46CDCCCC3D0AD7233C17B7D1387773
:10008000CC2B329595E6241FB14F0A000020410089
:1000900000C84200401C4620BCBE4CCA1B0E5AAED3
:1000A000C59D7400000000240027002A0000000005
:1000B00000250028002B0000000000230026002956
:1000C0000004040404040404040202020202020301
:1000D000030303030301020408102040800102040B
:1000E000081020010204081020000000080002018E
:1000F00000000304070000000000000000003905B4
:10010000790711241FBECFEFD8E0DEBFCDBF22E0BC
:10011000AAE4B1E001C01D92A630B207E1F711E0F8
:10012000A0E0B1E0EEE6FAE102C005900D92AA343B
:10013000B107D9F710E0C0E8D0E004C02197FE0174
:100140000E94320BCF37D107C9F70E9474050C9477
:100150002A0D0C940000833081F028F4813099F04E
:100160008230A9F008958730A9F08830C9F0843032
:10017000B1F4809180008F7D03C0809180008F77E3
:1001800080938000089584B58F7784BD089584B5E9
:100190008F7DFBCF8091B0008F778093B000089562
:1001A0008091B0008F7DF9CFCF93DF93282F30E07F
:1001B000F901E751FF4F8491F901EB52FF4FD491C0
:1001C000F901EF53FF4FC491CC23A1F081110E949C
:1001D000AB00EC2FF0E0EE0FFF1FE954FF4FA591AD
:1001E000B491EC91ED2381E090E009F480E0DF919F
:1001F000CF91089580E090E0FACF1F93CF93DF93E3
:10020000282F30E0F901E751FF4F8491F901EB52BB
:10021000FF4FD491F901EF53FF4FC491CC23A9F0C4
:10022000162F81110E94AB00EC2FF0E0EE0FFF1FA4
:10023000E355FF4FA591B4918FB7F894EC9111114C
:1002400008C0D095DE23DC938FBFDF91CF911F9143
:100250000895DE2BF8CFCF93DF9390E0FC01EB52B3
:10026000FF4F24918F539F4FFC0184918823C9F045
:1002700090E0880F991FFC01ED55FF4FA591B491B7
:10028000FC01E355FF4FC591D49161110DC09FB79B
:10029000F8948C91209582238C938881282328833D
:1002A0009FBFDF91CF910895623051F49FB7F894CA
:1002B0003C91822F809583238C93E8812E2BEFCF66
:1002C0008FB7F894EC912E2B2C938FBFEACF089523
:1002D0000895AF92BF92CF92DF92EF92FF920F9369
:1002E0001F93CF93DF936C017B018B01040F151FCC
:1002F000EB015E01AE18BF08C017D10759F0699134
:10030000D601ED91FC910190F081E02DC601099597
:10031000892B79F7C501DF91CF911F910F91FF9044
:10032000EF90DF90CF90BF90AF900895FC01538D78
:10033000448D252F30E0842F90E0821B930B5417BF
:1003400010F0CF96089501970895FC01918D828D4C
:10035000981761F0A28DAE0FBF2FB11D5D968C91E5
:10036000928D9F5F9F73928F90E008958FEF9FEF24
:1003700008952FB7F8948091590190915A01A09156
:100380005B01B0915C012FBF809365019093660182
:10039000A0936701B09368018DE591E00E94A501EB
:1003A00097FF26C02FB7F8948091590190915A0178
:1003B000A0915B01B0915C012FBF4091650150910C
:1003C00066016091670170916801841B950BA60B13
:1003D000B70B40916101509162016091630170918E
:1003E000640184179507A607B707B0F28FEF9FEF58
:1003F0000895FC01918D828D981731F0828DE80F60
:10040000F11D858D90E008958FEF9FEF0895FC0119
:10041000918D228D892F90E0805C9F4F821B9109E6
:100420008F73992708958DE591E00E94070221E0DE
:10043000892B09F420E0822F0895FC01A48DA80FD8
:10044000B92FB11DA35ABF4F2C91848D90E0019616
:100450008F739927848FA689B7892C93A089B18936
:100460008C91837080648C93938D848D981306C0D7
:100470000288F389E02D80818F7D80830895EF923B
:10048000FF920F931F93CF93DF93EC0181E0888F4E
:100490009B8D8C8D98131AC0E889F989808185FF1E
:1004A00015C09FB7F894EE89FF896083E889F989C0
:1004B00080818370806480839FBF81E090E0DF91C2
:1004C000CF911F910F91FF90EF900895F62E0B8D15
:1004D00010E00F5F1F4F0F731127E02E8C8D8E11D0
:1004E0000CC00FB607FCFACFE889F989808185FF37
:1004F000F5CFCE010E941D02F1CFEB8DEC0FFD2F49
:10050000F11DE35AFF4FF0829FB7F8940B8FEA89F1
:10051000FB8980818062CFCFCF93DF93EC01888D00
:100520008823B9F0AA89BB89E889F9898C9185FD6E
:1005300003C0808186FD0DC00FB607FCF7CF8C91FC
:1005400085FFF2CF808185FFEDCFCE010E941D0295
:10055000E9CFDF91CF910895CF93DF9382E00E949E
:10056000D400EC0183E00E94D400C817D90761F4DD
:1005700080914E0190914F01019690934F0180938D
:100580004E01DF91CF91089580914E0190914F01DE
:100590000197F3CFFC0101900020E9F73197AF01FB
:1005A000481B590BBC018DE591E00C9469018F92B9
:1005B0009F92AF92BF920F931F93CF93DF93CDB7CC
:1005C000DEB7A1970FB6F894DEBF0FBECDBF19A25C
:1005D000423008F44AE08E010F5D1F4F842E912CAB
:1005E000B12CA12CA50194010E94100BE62FB9019A
:1005F000CA01EA30F4F4E05DD801EE938D01232BBB
:10060000242B252B79F790E080E0109719F0CD018D
:100610000E94CA02A1960FB6F894DEBF0FBECDBFEE
:10062000DF91CF911F910F91BF90AF909F908F90CE
:100630000895E95CE1CFFC0180819181009711F080
:100640000C94D40B08950F931F93CF93DF93EC0179
:1006500088819981009759F02A813B8126173707B5
:1006600030F081E0DF91CF911F910F9108958B01C0
:100670006F5F7F4F0E945D0C009759F099838883CC
:100680001B830A832C813D81232B59F7FC011082A7
:10069000E8CF80E0E7CFEF92FF920F931F93CF93C5
:1006A000DF93EC017B018A01BA010E9423032881B8
:1006B0003981811114C02115310519F0C9010E9439
:1006C000D40B198218821D821C821B821A82CE01D1
:1006D000DF91CF911F910F91FF90EF9008951D83AF
:1006E0000C83B701C9010E94230DF1CFCF92DF9295
:1006F000EF92FF920F931F93CF93DF93CDB7DEB7A7
:1007000028970FB6F894DEBF0FBECDBF8DE591E000
:100710000E940702892BD1F31A8219821C821B8244
:100720001E821D8250E040E06DE371E0CE01019633
:100730000E944B030E94B90197FD1EC08A309105AB
:10074000D9F08F8318860D811E810F5F1F4FB8016E
:10075000CE0101960E942303882361F329813A8107
:100760008D819E81BE01695F7F4F820F931F0E9422
:10077000230D1E830D83DECF8091FA019091FB0142
:10078000009709F469C069817A816115710509F4DE
:1007900061C04091FC015091FD012D813E814217C5
:1007A000530708F457C00E94230D8D819E819093BA
:1007B000FF018093FE011E821D82CE0101960E94E0
:1007C0001B031A8219821C821B821E821D82609169
:1007D000FA017091FB016115710541F04091FE0134
:1007E0005091FF01CE0101960E944B0389819A81AD
:1007F000C12CD12C7601009721F00E947D076B015E
:100800007C01CE0101960E941B032AE939E94AEADC
:1008100053E4C701B6010E94580920E030E040E0EF
:100820005EE30E94580960935001709351018093D8
:1008300052019093530128960FB6F894DEBF0FBE75
:10084000CDBFDF91CF911F910F91FF90EF90DF907F
:10085000CF9008950E94D40B89819A819093FB01D7
:100860008093FA018B819C819093FD018093FC0120
:100870008D819E819093FF018093FE011A821982DF
:100880001C821B8298CF0E94130281110C94760364
:1008900008951F920F920FB60F9211242F933F933A
:1008A0008F939F93AF93BF938091590190915A0179
:1008B000A0915B01B0915C013091580123E0230FBE
:1008C0002D3758F50196A11DB11D20935801809335
:1008D000590190935A01A0935B01B0935C01809100
:1008E000540190915501A0915601B0915701019684
:1008F000A11DB11D8093540190935501A093560101
:10090000B0935701BF91AF919F918F913F912F91DC
:100910000F900FBE0F901F90189526E8230F029698
:10092000A11DB11DD2CF1F920F920FB60F921124AD
:100930002F933F934F935F936F937F938F939F93E7
:10094000AF93BF93EF93FF93E0910201F091030106
:100950000995FF91EF91BF91AF919F918F917F91F9
:100960006F915F914F913F912F910F900FBE0F901C
:100970001F9018951F920F920FB60F9211242F936C
:100980003F934F935F936F937F938F939F93AF9317
:10099000BF93EF93FF93E0910001F091010109955E
:1009A000FF91EF91BF91AF919F918F917F916F9147
:1009B0005F914F913F912F910F900FBE0F901F901D
:1009C00018951F920F920FB60F9211242F933F93F9
:1009D0004F935F936F937F938F939F93AF93BF9347
:1009E000EF93FF938DE591E00E941D02FF91EF913F
:1009F000BF91AF919F918F917F916F915F914F9137
:100A00003F912F910F900FBE0F901F9018951F923E
:100A10000F920FB60F9211242F938F939F93EF9302
:100A2000FF93E0916D01F0916E018081E09173017F
:100A3000F091740182FD1BC09081809176018F5FDF
:100A40008F7320917701821741F0E0917601F0E0F9
:100A5000E35AFE4F958F80937601FF91EF919F911E
:100A60008F912F910F900FBE0F901F90189580813E
:100A7000F4CFEDE5F1E01382128288EE93E0A0E07E
:100A8000B0E084839583A683B7838EE091E0918361
:100A9000808385EC90E09587848784EC90E097874D
:100AA000868780EC90E0918B808B81EC90E0938B3B
:100AB000828B82EC90E0958B848B86EC90E0978B18
:100AC000868B118E128E138E148EEAEFF1E0118256
:100AD0001082138212821582148250E040E06DE38E
:100AE00071E0CF010C944B03789484B5826084BD8F
:100AF00084B5816084BD85B5826085BD85B5816022
:100B000085BD80916E00816080936E00109281009F
:100B1000809181008260809381008091810081605A
:100B2000809381008091800081608093800080911B
:100B3000B10084608093B1008091B00081608093A7
:100B4000B00080917A00846080937A0080917A006E
:100B5000826080937A0080917A00816080937A002D
:100B600080917A00806880937A001092C100E091B1
:100B70006D01F0916E0182E08083E0916901F09156
:100B80006A011082E0916B01F0916C018FEC80831F
:100B900010927501E0917101F091720186E08083FD
:100BA000E0916F01F0917001808180618083E0911C
:100BB0006F01F0917001808188608083E0916F0106
:100BC000F0917001808180688083E0916F01F091E5
:100BD000700180818F7D808362E082E00E942B0122
:100BE00060E083E00E942B018CEA92E09093010187
:100BF00080930001809169008C7F816080936900FF
:100C0000E89A61E084E00E942B0161E085E00E94A7
:100C10002B0161E086E00E942B018CE191E00E94B3
:100C2000CA028BE391E00E94CA020FEE10E0CDE70A
:100C3000D0E08DE7382E61E086E00E942B01F801BC
:100C40008491833009F484C050F48130D1F0823033
:100C500009F479C060E086E00E94FD0016C087308C
:100C600009F480C0883009F485C0843099F78091F8
:100C70008000806280938000D0938B00C0938A00B4
:100C800004C084B5806884BD37BC60914E0170910A
:100C90004F01072E000C880B990B0E94F9089B014D
:100CA000AC0160915001709151018091520190917D
:100CB00053010E946A0A6B017C014B015C01C092E6
:100CC0004A01D0924B01E0924C01F0924D01AC01EF
:100CD0009B010E940B0B882309F454C08EE391E022
:100CE0000E94CA028BE391E00E94CA02C0904A01AE
:100CF000D0904B01E0904C01F0904D0120E030E0AD
:100D000040EA50E4C701B6010E94F20818160CF43C
:100D1000CDC020E030E040EA50ECC701B6010E94AF
:100D2000060B87FDC3C060E084E00E94FD0060E028
:100D300085E00E94FD000E941302882309F47BCF06
:100D40000E94760378CF84B5806284BD38BC9DCF85
:100D500080918000806880938000D0938900C09348
:100D6000880093CF8091B00080688093B00030926B
:100D7000B3008BCF8091B00080628093B00030923E
:100D8000B40083CF26013701E89477F82FEF3FEFC7
:100D90004FE75FE7C301B2010E940B0B81110DC049
:100DA0002FEF3FEF4FE75FE7C301B2010E94F20868
:100DB00018161CF482E491E093CF2FEF3FEF4FE73A
:100DC0005FE4C701B6010E94060B18161CF486E406
:100DD00091E086CF2FEF3FEF4FE75FECC701B60101
:100DE0000E94F20887FDF3CF20E030E0A901C7019F
:100DF000B6010E94F20887FF0BC06DE28DE591E01D
:100E00000E943F0246015701B7FAB094B7F8B09478
:100E10002AE037ED43EA5BE3C501B4010E946B0AA7
:100E20004B015C010E94D70A6B017C010E94F7080C
:100E30009B01AC01C501B4010E946A0A4B015C012F
:100E40004AE0C701B6010E94D7026EE28DE591E04B
:100E50000E943F0220E030E040E251E4C501B401CD
:100E60000E9458094B015C010E94D70A6B01F12CCA
:100E7000E12C4AE0C701B6010E94D702C701B601C2
:100E80000E94F7089B01AC01C501B4010E946A0AE7
:100E900020E030E040E251E40E9458090E94D70A65
:100EA00090E080E04AE00E94D7021CCF20E030E0D2
:100EB00040E050ECC701B6010E94F20887FF08C06D
:100EC00061E084E00E94FD0060E085E00E94FD009A
:100ED00020E030E040E050E4C701B6010E94060B7C
:100EE00018160CF028CF60E084E00E94FD0061E05D
:100EF0001FCF8AEF91E00C941B03662777270C9491
:100F00008107B0E0A0E0E7E8F7E00C942A0A5C0172
:100F10007B016115710519F0DB018D939C938501AF
:100F20000F5F1F4FF501D0818D2F90E00E94D108F7
:100F30006C01892BB9F5DD32B9F50F5F1F4FD50173
:100F40001196DC91C1E05801F1E0AF1AB10843E01D
:100F500050E060E770E0C5010E94DA08892B69F56E
:100F6000680182E0C80ED11C45E050E06BE670E0FD
:100F7000C6010E94DA08892B21F4680197E0C90EA6
:100F8000D11CE114F10419F0D701CD92DC9260E09C
:100F900070E080E89FEFC111FFC060E070E080E882
:100FA0009FE7FAC05801BBCFDB3229F485010E5F01
:100FB0001F4FF501D181C0E0C6CF43E050E068E6A5
:100FC00070E0C5010E94DA08892BE9F0F80110E011
:100FD00000E020E030E0A9015F01B0ED8B2E8D0E26
:100FE00089E08815C8F19C2E689491F88C2F887040
:100FF000C2FF16C0811102C00F5F1F4F3196D5018D
:10100000DC91C92DE9CFE114F10429F00E5F1F4FE7
:10101000F7011183008360E070E080EC9FE7BCC0C3
:10102000882311F001501109A5E0B0E00E94190ACF
:101030009B01AC01220F331F441F551F280D311D8A
:10104000411D511D283999E93907490799E1590787
:10105000A8F2C6609C2ED2CFAEEF8A1206C0C3FDA6
:101060003CC09C2E689493F8C9CFDF7DD534A9F598
:1010700080818D3239F4C061DF011296818162E096
:1010800070E006C0DF018B32C1F3119661E070E0C1
:1010900080535D01A61AB70A8A30F8F4E0E8CE164C
:1010A000ECE0DE065CF4B601660F771F660F771F73
:1010B000C60ED71ECC0CDD1CC80ED11C5D01FFEF87
:1010C000AF1ABF0A8C9180538A30A8F1C4FF03C0C5
:1010D000D194C194D1080C0D1D1DC1FF09C0E114AC
:1010E000F10431F081E0A81AB108D701AD92BC92A9
:1010F000CA01B9010E94F708C370C33009F49058BF
:101100004B015C0120E030E0A9010E94F208882335
:1011100009F440C0CFE9D0E017FF05C01195019553
:101120001109C7E8D0E06E01B8E1CB1AD10880E21E
:10113000E82EF12C0FC0D501B1CFFE0125913591DC
:10114000459154910E191F09C501B4010E94580917
:101150004B015C01D501C4010E151F0574F72497DE
:10116000F594E794CC16DD06A9F78A2F880F8B2F0C
:10117000881F8F3F49F020E030E0A901C501B4018C
:101180000E94F208811106C082E290E09093010271
:1011900080930002C501B401CDB7DEB7ECE00C943A
:1011A000460A91110C94C509803219F08950855076
:1011B000C8F70895FB01DC014150504088F08D9143
:1011C00081341CF08B350CF4805E659161341CF029
:1011D0006B350CF4605E861B611171F3990B0895F9
:1011E000881BFCCF0E94340908F481E00895E8943C
:1011F00009C097FB3EF490958095709561957F4F5F
:101200008F4F9F4F9923A9F0F92F96E9BB2793950C
:10121000F695879577956795B795F111F8CFFAF41C
:10122000BB0F11F460FF1BC06F5F7F4F8F4F9F4F4D
:1012300016C0882311F096E911C0772321F09EE8AB
:10124000872F762F05C0662371F096E8862F70E011
:1012500060E02AF09A95660F771F881FDAF7880FEB
:101260009695879597F90895990F0008550FAA0B41
:10127000E0E8FEEF16161706E807F907C0F01216A9
:101280001306E407F50798F0621B730B840B950BAC
:1012900039F40A2661F0232B242B252B21F4089501
:1012A0000A2609F4A140A6958FEF811D811D08959E
:1012B0000E946B090C94DF090E94D10938F00E944A
:1012C000D80920F0952311F00C94C8090C94CE098C
:1012D00011240C94130A0E94F00970F3959FC1F336
:1012E000950F50E0551F629FF001729FBB27F00DD4
:1012F000B11D639FAA27F00DB11DAA1F649F662729
:10130000B00DA11D661F829F2227B00DA11D621F77
:10131000739FB00DA11D621F839FA00D611D221F31
:10132000749F3327A00D611D231F849F600D211D15
:10133000822F762F6A2F11249F5750409AF0F1F098
:1013400088234AF0EE0FFF1FBB1F661F771F881F01
:1013500091505040A9F79E3F510580F00C94C80968
:101360000C94130A5F3FE4F3983ED4F38695779587
:101370006795B795F795E7959F5FC1F7FE2B880FA7
:10138000911D9695879597F908959927882708952F
:1013900097F99F6780E870E060E008959FEF80EC28
:1013A000089500240A9416161706180609060895CB
:1013B00000240A9412161306140605060895092E31
:1013C0000394000C11F4882352F0BB0F40F4BF2BA0
:1013D00011F460FF04C06F5F7F4F8F4F9F4F0895E0
:1013E00057FD9058440F551F59F05F3F71F04795D6
:1013F000880F97FB991F61F09F3F79F087950895BB
:10140000121613061406551FF2CF4695F1DF08C0D9
:10141000161617061806991FF1CF869571056105F6
:1014200008940895E894BB2766277727CB0197F99E
:1014300008950E945B0AA59F900DB49F900DA49FF4
:10144000800D911D112408952F923F924F925F922B
:101450006F927F928F929F92AF92BF92CF92DF92C4
:10146000EF92FF920F931F93CF93DF93CDB7DEB729
:10147000CA1BDB0B0FB6F894DEBF0FBECDBF0994BD
:101480002A88398848885F846E847D848C849B8414
:10149000AA84B984C884DF80EE80FD800C811B8122
:1014A000AA81B981CE0FD11D0FB6F894DEBF0FBE51
:1014B000CDBFED010895A29FB001B39FC001A39FCE
:1014C000700D811D1124911DB29F700D811D11247D
:1014D000911D08955058BB27AA270E94820A0C9498
:1014E000DF090E94D10938F00E94D80920F039F4B0
:1014F0009F3F19F426F40C94CE090EF4E095E7FB17
:101500000C94C809E92F0E94F00958F3BA17620732
:1015100073078407950720F079F4A6F50C94120A56
:101520000EF4E0950B2EBA2FA02D0B01B9019001FE
:101530000C01CA01A0011124FF27591B99F0593F42
:1015400050F4503E68F11A16F040A22F232F342F8A
:101550004427585FF3CF469537952795A795F040D8
:101560005395C9F77EF41F16BA0B620B730B840BED
:10157000BAF09150A1F0FF0FBB1F661F771F881FA5
:10158000C2F70EC0BA0F621F731F841F48F48795FD
:1015900077956795B795F7959E3F08F0B0CF9395EF
:1015A000880F08F09927EE0F9795879508950E9468
:1015B000F80988F09F5798F0B92F9927B751B0F0E4
:1015C000E1F0660F771F881F991F1AF0BA95C9F7C7
:1015D00014C0B13091F00E94120AB1E008950C9449
:1015E000120A672F782F8827B85F39F0B93FCCF3FC
:1015F000869577956795B395D9F73EF49095809544
:10160000709561957F4F8F4F9F4F08950E943409C9
:1016100008F48FEF08950E943409880B990B089500
:10162000A1E21A2EAA1BBB1BFD010DC0AA1FBB1FE6
:10163000EE1FFF1FA217B307E407F50720F0A21B58
:10164000B30BE40BF50B661F771F881F991F1A94C5
:1016500069F760957095809590959B01AC01BD01EF
:10166000CF010895EE0FFF1F0590F491E02D09942E
:101670000F931F93CF93DF938230910510F482E094
:1016800090E0E0910402F091050230E020E0B0E04B
:10169000A0E0309799F42115310509F44AC0281BC0
:1016A000390B24303105D8F58A819B81611571058C
:1016B00089F1FB0193838283FE0111C04081518136
:1016C0000281138148175907E0F04817590799F428
:1016D000109761F012960C93129713961C93329602
:1016E000CF01DF91CF911F910F91089500930402D4
:1016F00010930502F4CF2115310551F0421753071D
:1017000038F0A901DB019A01BD01DF01F801C1CF69
:10171000EF01F9CF9093050280930402CDCFFE0133
:10172000E20FF31F8193919322503109398328836B
:10173000D7CF2091020230910302232B41F4209154
:101740000601309107013093030220930202209199
:101750000401309105012115310541F42DB73EB743
:101760004091080150910901241B350BE0910202C0
:10177000F0910302E217F307A0F42E1B3F0B28178A
:10178000390778F0AC014E5F5F4F2417350748F0FA
:101790004E0F5F1F50930302409302028193919377
:1017A0009FCFF0E0E0E09CCFCF93DF930097E9F08C
:1017B000FC01329713821282A0910402B0910502BB
:1017C000ED0130E020E01097A1F420813181820FFB
:1017D000931F20910202309103022817390709F064
:1017E00061C0F0930302E0930202DF91CF9108956C
:1017F000EA01CE17DF07E8F54A815B819E014115BA
:101800005105B1F7E901FB83EA8349915991C40F6E
:10181000D51FEC17FD0761F4808191810296840F3A
:10182000951FE90199838883828193819B838A83B1
:10183000F0E0E0E012968D919C9113970097B9F536
:101840002D913C911197CD010296820F931F20910B
:101850000202309103022817390739F6309751F503
:101860001092050210920402B0930302A0930202A8
:10187000BCCFD383C28340815181840F951FC81789
:10188000D90761F44E5F5F4F88819981480F591FD6
:10189000518340838A819B81938382832115310503
:1018A00009F0B0CFF0930502E09304029ECFFD0152
:1018B000DC01C0CF13821282D7CFB0E0A0E0E3E614
:1018C000FCE00C94260A8C01009751F4CB010E9495
:1018D000380B8C01C801CDB7DEB7E0E10C94420AA9
:1018E000FC01E60FF71F9C0122503109E217F307B4
:1018F00008F49DC0D901CD91DC911197C617D70787
:1019000098F0C530D10530F3CE01049786179707BC
:1019100008F3C61BD70B2297C193D1936D937C9389
:10192000CF010E94D40BD6CF5B01AC1ABD0A4C018B
:101930008C0E9D1EA0910402B0910502512C412CE9
:10194000F12CE12C109731F5809102029091030265
:101950008815990509F05CC04616570608F058C06E
:101960008091040190910501009741F48DB79EB7D5
:101970004091080150910901841B950BE817F90764
:1019800008F055C0F0930302E0930202F90171835D
:101990006083A0CF8D919C91119712966C901297B5
:1019A00013967C901397A815B90559F56C0142E080
:1019B000C40ED11CCA14DB0420F1AC014A195B0926
:1019C000DA011296159780F0628273825183408308
:1019D000D9016D937C93E114F10471F0D701139652
:1019E000FC93EE93129776CF22968C0F9D1FF901F0
:1019F00091838083F301EFCFF0930502E09304021B
:101A000069CF4816590608F42C017D01D3019ACFFD
:101A1000CB010E94380B7C01009749F0AE01B80160
:101A20000E941A0DC8010E94D40B870153CF10E009
:101A300000E050CFFB01DC0102C001900D9241504B
:101A40005040D8F70895FB01DC0101900D92002071
:101A5000E1F7089510E0C0E8D0E004C0FE010E9464
:0E1A6000320B2196C138D107C9F7F894FFCF99
:101A6E0068016801000006028000000000003F02CD
:101A7E00690196018C020702A501F901496E677290
:101A8E00657365206C6173207675656C7461732067
:101A9E006465736561646173203A000D0A006E61BE
:0A1AAE006E00696E66006F76660038
:00000001FF
