:100000000C9410010C9438010C9438010C943801B4
:100010000C9438010C9438010C9438010C9438017C
:100020000C9438010C9438010C9438010C9438016C
:100030000C9438010C9438010C9438010C9438015C
:100040000C94D9050C9438010C9449060C942306A1
:100050000C9438010C9438010C9438010C9438013C
:100060000C9438010C94380153652063616D62690A
:100070006F206C6120706F736963696F6E20613AE5
:100080002000496E6772657365206C6120706F7324
:10009000696369C3B36E3A0043414D42494F2044FE
:1000A0004520504F534943494F4E005365206361EB
:1000B0006D62696F206C612076656C6F6369646145
:1000C0006420613A2000496E6772657365206C6137
:1000D0002076656C6F636964616420656E2072616F
:1000E000642F20733A0043414D42494F204445203C
:1000F00056454C4F4349444144002D2D2D476972CC
:100100006F20416E7469686F726172696F2D2D2D59
:100110000045535441444F3A20002D2D2D4170612C
:100120006761646F2D2D2D0045535441444F3A2093
:10013000002D2D2D4769726F20486F726172696FB3
:100140002D2D2D0045737461646F3A2000352E20EB
:1001500043616D6269617220706F736963696F6E6C
:1001600000342E2043616D626961722076656C6F88
:10017000636964616400332E204769726120497AA3
:100180007175696572646100322E2041706167612A
:100190007200312E20476972612044657265636880
:1001A000610050726573696F6E6520756E61206FB6
:1001B0007063696F6E20312D333A20002020204D6E
:1001C000454E550000000000240027002A000000D2
:1001D0000000250028002B0000000000230026005E
:1001E00029000404040404040404020202020202BA
:1001F00003030303030301020408102040800102EB
:100200000408102001020408102000000008000269
:1002100001000003040700000000000000001807B0
:1002200011241FBECFEFD8E0DEBFCDBF21E0AEE18D
:10023000B1E001C01D92AC3CB207E1F711E0A0E0D3
:10024000B1E0EAE2FFE002C005900D92AE31B107E5
:10025000D9F711E0C0E1D1E004C02197FE010E946E
:100260008D07CF30D107C9F70E947B060C94930706
:100270000C940000833081F028F4813099F08230B2
:10028000A9F008958730A9F08830C9F08430B1F41E
:10029000809180008F7D03C0809180008F77809354
:1002A0008000089584B58F7784BD089584B58F7DCF
:1002B000FBCF8091B0008F778093B000089580913C
:1002C000B0008F7DF9CFCF93DF93282F30E0F90175
:1002D000E65FFD4F8491F901EA50FE4FD491F90198
:1002E000EE51FE4FC491CC23A1F081110E943A013E
:1002F000EC2FF0E0EE0FFF1FE852FE4FA591B491F6
:10030000EC91ED2381E090E009F480E0DF91CF9162
:10031000089580E090E0FACF1F93CF93DF93282FCA
:1003200030E0F901E65FFD4F8491F901EA50FE4F9C
:10033000D491F901EE51FE4FC491CC23A9F0162FB0
:1003400081110E943A01EC2FF0E0EE0FFF1FE25303
:10035000FE4FA591B4918FB7F894EC91111108C09C
:10036000D095DE23DC938FBFDF91CF911F9108954D
:10037000DE2BF8CFCF93DF9390E0FC01EA50FE4FE5
:1003800024918E519E4FFC0184918823D1F090E0FE
:10039000880F991FFC01EC53FE4FA591B491FC010D
:1003A000E253FE4FC591D49161110EC09FB7F894EE
:1003B0008C91E22FE0958E238C932881E223E883B1
:1003C0009FBFDF91CF9108958FB7F894EC91E22B06
:1003D000EC938FBFF6CFCF93DF93EC0161E083E026
:1003E0000E94BA01209731F460E083E0DF91CF9161
:1003F0000C948C01CF3FD10511F461E0F6CFEDE014
:10040000F2E0E491E33029F140F4E130B1F0E23080
:10041000D9F0C038D1058CF7E7CFE73021F1E830CB
:1004200051F1E430B1F780918000806280938000C8
:10043000D0938B00C0938A0004C084B5806884BDCB
:10044000C7BDDF91CF91089584B5806284BDC8BDDA
:10045000F8CF80918000806880938000D0938900DD
:10046000C0938800EECF8091B00080688093B00088
:10047000C093B300E6CF8091B00080628093B0005B
:10048000C093B400DECF3FB7F894809127019091DC
:100490002801A0912901B0912A0126B5A89B05C089
:1004A0002F3F19F00196A11DB11D3FBFBA2FA92FF3
:1004B000982F8827BC01CD01620F711D811D911DF0
:1004C00042E0660F771F881F991F4A95D1F708955C
:1004D0008F929F92AF92BF92CF92DF92EF92FF9254
:1004E0004B015C010E9443026B017C010E944302AC
:1004F0006C197D098E099F09683E7340810591053D
:10050000A8F321E0821A9108A108B10888EEC80E6C
:1005100083E0D81EE11CF11C81149104A104B104F4
:1005200029F7FF90EF90DF90CF90BF90AF909F9012
:100530008F900895AF92BF92CF92DF92EF92FF9289
:100540000F931F93CF93DF936C017B018B01040FFB
:10055000151FEB015E01AE18BF08C017D10759F097
:100560006991D601ED91FC910190F081E02DC601D9
:100570000995892B79F7C501DF91CF911F910F91D3
:10058000FF90EF90DF90CF90BF90AF900895FC0167
:10059000538D448D252F30E0842F90E0821B930BE8
:1005A000541710F0CF96089501970895FC01918D8E
:1005B000828D981761F0A28DAE0FBF2FB11D5D9691
:1005C0008C91928D9F5F9F73928F90E008958FEF33
:1005D0009FEF08950F931F93CF93DF938C01D0E08B
:1005E000C0E02FB7F89480912B0190912C01A0913D
:1005F0002D01B0912E012FBF8093370190933801C8
:10060000A0933901B0933A018FE291E00E94D602A3
:1006100097FF2AC02FB7F89480912B0190912C015D
:10062000A0912D01B0912E012FBF40913701509123
:1006300038016091390170913A01841B950BA60B2A
:10064000B70B4091330150913401609135017091A5
:10065000360184179507A607B707B0F2CE01DF91E0
:10066000CF911F910F9108958A309105B9F3F80148
:1006700081938F012196C330D10509F0B2CFEECF1F
:10068000FC01918D828D981731F0828DE80FF11D5C
:10069000858D90E008958FEF9FEF0895FC01918D77
:1006A000228D892F90E0805C9F4F821B91098F7370
:1006B000992708958FE291E00E944E0321E0892B53
:1006C00009F420E0822F0895FC01A48DA80FB92F12
:1006D000B11DA35ABF4F2C91848D90E001968F736A
:1006E0009927848FA689B7892C93A089B1898C9189
:1006F000837080648C93938D848D981306C00288D8
:10070000F389E02D80818F7D80830895EF92FF92A1
:100710000F931F93CF93DF93EC0181E0888F9B8D24
:100720008C8D98131AC0E889F989808185FF15C0DE
:100730009FB7F894EE89FF896083E889F989808101
:100740008370806480839FBF81E090E0DF91CF91D0
:100750001F910F91FF90EF900895F62E0B8D10E0F2
:100760000F5F1F4F0F731127E02E8C8D8E110CC061
:100770000FB607FCFACFE889F989808185FFF5CFAC
:10078000CE010E946403F1CFEB8DEC0FFD2FF11D24
:10079000E35AFF4FF0829FB7F8940B8FEA89FB89E9
:1007A00080818062CFCF0F931F93CF93DF938C0113
:1007B000D0E0C0E0F801EC0FFD1F6491662341F02A
:1007C0008FE291E00E948603892B11F02196F2CFEF
:1007D000CE01DF91CF911F910F910895CF93DF93B9
:1007E000EC01888D8823B9F0AA89BB89E889F98949
:1007F0008C9185FD03C0808186FD0DC00FB607FC7E
:10080000F7CF8C9185FFF2CF808185FFEDCFCE01B0
:100810000E946403E9CFDF91CF9108950F931F9356
:10082000CF93DF9385E00E9463018C0190932501B3
:100830008093240186E00E946301EC0190932301E0
:100840008093220108171907A1F085E00E94630137
:100850002091200130912101C817D90779F02F5F2D
:100860003F4F3093210120932001D0932501C09365
:100870002401DF91CF911F910F91089521503109EB
:10088000F0CF8F929F92AF92BF920F931F93CF930F
:10089000DF93CDB7DEB7A1970FB6F894DEBF0FBEDA
:1008A000CDBF19A2423008F44AE08E010F5D1F4F00
:1008B000842E912CB12CA12CA50194010E946B07D0
:1008C000E62FB901CA01EA3044F5E05DD801EE93A4
:1008D0008D01232B242B252B79F790E080E01097B6
:1008E00069F0FD0101900020E9F73197AF014A1B43
:1008F0005B0BBD018FE291E00E949A02A1960FB6B8
:10090000F894DEBF0FBECDBFDF91CF911F910F9145
:10091000BF90AF909F908F900895E95CD7CF42E051
:1009200050E06BE171E08FE291E00C949A02CF937A
:10093000DF930E94D303EC010E948F048C0F9D1F54
:10094000DF91CF9108950E948F048CEB91E00E947B
:10095000970482EA91E00E94970482E991E00E9464
:10096000970488E891E00E94970486E791E00E944E
:10097000970481E691E00E9497048DE491E00C9445
:100980009704CF92DF92EF92FF92CF93DF936C01A7
:10099000990FEE08FF08F7FE1DC06DE28FE291E0AF
:1009A0000E948603EC0166277727CB016C197D092D
:1009B0008E099F094AE00E944104C80FD91F0E9476
:1009C0008F048C0F9D1FDF91CF91FF90EF90DF90F0
:1009D000CF9008954AE0C701B6010E944104EC019E
:1009E000EECFCF93DF9364E170E080E090E00E946F
:1009F00068028FE291E00E94D602C82F809308011E
:100A00008FE291E00E944E03181619062CF48FE233
:100A100091E00E94D602F4CFC33309F468C04CF4CD
:100A2000C13399F1C23309F449C0DF91CF910C94DD
:100A3000A304C43309F472C0C533B9F70E948F040C
:100A400088E990E00E94970482E890E00E94970471
:100A50008FE291E00E944E03892BD1F380E091E078
:100A60000E94EA0264E670E080E090E00E94680282
:100A70008FE291E00E944E03181619060CF087C011
:100A80008FE291E00E94D602F3CF61E082E00E9403
:100A90008C0160E084E00E948C01809106019091BD
:100AA00007010E94EB010E948F0484E491E00E9400
:100AB000D30381E391E00E949704B7CF60E082E026
:100AC0000E948C0160E084E00E948C0190E080E054
:100AD0000E94EB010E948F0488E291E00E94D30300
:100AE0008AE191E00E9497040E940E049ECF60E08C
:100AF00082E00E948C0161E084E00E948C01809180
:100B00000601909107010E94EB010E948F0481E190
:100B100091E00E94D3038AEF90E0CDCF0E948F0432
:100B200086EE90E00E94970486EC90E00E94970485
:100B30008FE291E00E944E03892BD1F383E091E094
:100B40000E94EA0264E670E080E090E00E946802A1
:100B50008FE291E00E944E03181619062CF48FE2E2
:100B600091E00E94D602F4CF83E091E00E94450715
:100B7000EC0190930701809306010E94EB018BEA40
:100B800090E00E94D303CE010E94C1044ECF80E0CA
:100B900091E00E944507EC0190931F0180931E0194
:100BA00088E690E0EECF0E945A0381110C94F10484
:100BB00008951F920F920FB60F9211242F933F9317
:100BC0008F939F93AF93BF9380912B0190912C01B2
:100BD000A0912D01B0912E013091260123E0230F29
:100BE0002D3758F50196A11DB11D20932601809344
:100BF0002B0190932C01A0932D01B0932E01809195
:100C0000270190912801A0912901B0912A01019614
:100C1000A11DB11D8093270190932801A093290164
:100C2000B0932A01BF91AF919F918F913F912F91E6
:100C30000F900FBE0F901F90189526E8230F029675
:100C4000A11DB11DD2CF1F920F920FB60F9211248A
:100C50002F933F934F935F936F937F938F939F93C4
:100C6000AF93BF93EF93FF938FE291E00E946403F1
:100C7000FF91EF91BF91AF919F918F917F916F9174
:100C80005F914F913F912F910F900FBE0F901F904A
:100C900018951F920F920FB60F9211242F938F93D6
:100CA0009F93EF93FF93E0913F01F091400180818A
:100CB000E0914501F091460182FD1BC09081809139
:100CC00048018F5F8F7320914901821741F0E091B5
:100CD0004801F0E0E15DFE4F958F80934801FF9160
:100CE000EF919F918F912F910F900FBE0F901F90BA
:100CF00018958081F4CF789484B5826084BD84B5E2
:100D0000816084BD85B5826085BD85B5816085BD06
:100D100080916E00816080936E00109281008091BE
:100D20008100826080938100809181008160809346
:100D30008100809180008160809380008091B1006B
:100D400084608093B1008091B00081608093B00096
:100D500080917A00846080937A0080917A0082602A
:100D600080937A0080917A00816080937A008091EC
:100D70007A00806880937A001092C100E0913F0170
:100D8000F091400182E08083E0913B01F0913C01D1
:100D90001082E0913D01F0913E018FEC8083109232
:100DA0004701E0914301F091440186E08083E091A6
:100DB0004101F0914201808180618083E091410195
:100DC000F0914201808188608083E0914101F0913F
:100DD0004201808180688083E0914101F09142016D
:100DE00080818F7D808360E086E00E94BA0160E0B0
:100DF00085E00E94BA0161E082E00E94BA0161E0F0
:100E000084E00E94BA0161E083E00E94BA010E947E
:100E1000A3040E940E0468EB7BE080E090E00E9457
:100E200068020E945A038823A1F30E94F104F1CFC3
:100E3000EFE2F1E01382128288EE93E0A0E0B0E0EE
:100E400084839583A683B7838DE091E0918380832B
:100E500085EC90E09587848784EC90E0978786877F
:100E600080EC90E0918B808B81EC90E0938B828B77
:100E700082EC90E0958B848B86EC90E0978B868B50
:100E8000118E128E138E148E0895FC0188279927D7
:100E9000E89421912032E9F3293010F02E30C8F384
:100EA0002B3241F02D3239F4689404C00E9463075C
:100EB000820F911D219120532A30C0F31EF490958A
:100EC00081959F4F08957AE0979F902D879F802D61
:100ED000910D11240895A1E21A2EAA1BBB1BFD013E
:100EE0000DC0AA1FBB1FEE1FFF1FA217B307E40709
:100EF000F50720F0A21BB30BE40BF50B661F771F61
:100F0000881F991F1A9469F7609570958095909540
:100F10009B01AC01BD01CF010895EE0FFF1F0590AD
:0A0F2000F491E02D0994F894FFCF3E
:100F2A00202020202020FF00300000000086039AA5
:0E0F3A0002C702EE034E03D60240030D0A006A
:00000001FF
